:10000000F8FF0020110400005326000053260000D2
:1000100053260000532600005326000053260000FC
:1000200053260000532600005326000053260000EC
:1000300053260000532600005326000053260000DC
:1000400053260000532600005326000053260000CC
:10040000FFFFFFFFFFFFFFFFFFFFFFFFFEFFFFFFFD
:1004100062B604F02FFEFEE72DE9F84F04003B25FD
:100420000020DFF8A81908700020DFF8A419087070
:100430000020DFF8A01908700020DFF89C19087070
:100440000020DFF8981908700020DFF89419087070
:100450000220DFF8901908704E20DFF88C19087020
:100460003B20DFF8881908703B20DFF86C1B087010
:100470005020DFF87C1908700020DFF87819087028
:100480000020DFF8581B08700020DFF8541B0870AC
:100490000020DFF8641908700020DFF86019087088
:1004A0000220DFF85C1908704E20DFF8381B087056
:1004B0005020DFF8501981F83C000020DFF848197F
:1004C00081F83C000020DFF8441981F83C0002204C
:1004D000DFF8141B81F83C000220DFF80C1B81F8C8
:1004E0003D000120DFF8001B81F83E002820DFF8E6
:1004F000FC1A81F83C002820DFF8F01A81F83D0052
:100500002820DFF8E81A81F83E004E20DFF8FC1AB8
:1005100081F83C004E20DFF8F41A81F83D004F20AE
:10052000DFF8E81A81F83E003B2005006DB2142D7B
:10053000C0F270830120DFF8D0186DB24855012059
:10054000DFF8C8186DB248556DB2502015FB00F0A9
:10055000DFF8981A6DB22944497850FA81F0205C8E
:1005600000281AD16DB23B2D16D1200000F0A7FB58
:10057000DFF8980A90F83B00DFF86C1A91F83B100E
:10058000401A282807DA21003B2000F0FFFF210055
:100590003B2001F01FF83BE33CE321002800C0B200
:1005A00000F081FF6DB2372D14DBDFF8600A6DB209
:1005B000405DDFF8341A6DB2495D401A282809DA27
:1005C00021002800C0B200F0E1FF21002800C0B2E5
:1005D00001F000F8DFF8340A6DB2405DDFF8081A68
:1005E0006DB2495D401ADFF81C186DB24855DFF84E
:1005F00014086DB2405DDFF80C186DB229444978DB
:10060000884208D2DFF8FC076DB2405DDFF8E017E2
:10061000097888425AD30120DFF8D8170870DFF82C
:10062000E8076DB228444078002811D0DFF8B809F7
:100630006DB2405DDFF8CC196DB229444978491E8E
:10064000884216DA0120DFF8C0176DB2485510E075
:10065000DFF894096DB2405DDFF88C196DB2294462
:100660004978491E884204DA0120DFF89C176DB2F0
:100670004855DFF898076DB228444078002812D01A
:10068000DFF884096DB228444078401CDFF87C19FB
:100690006DB2495D884280F2AB800120DFF86C17B3
:1006A0006DB24855A4E0DFF864096DB22844407883
:1006B000401CDFF858196DB2495D884280F298807D
:1006C0000120DFF848176DB2485591E06DB23B2D1F
:1006D00000F08E806DB21F2DC0F28A80DFF82C09E9
:1006E0006DB2405D401DDFF824196DB22944497890
:1006F000884238DADFF814076DB2284440780028C1
:1007000031D16DB2502015FB00F0DFF800196DB249
:10071000495D4018204410F8500C002816D16DB2E5
:10072000502015FB00F0DFF8E4186DB2495D401869
:10073000204410F8A00C002808D1DFF894060078B7
:10074000002810D1DFF8880605700CE0DFF8880675
:100750000078002802D1DFF880060570210028000B
:10076000C0B200F037FFDFF880086DB2284440784F
:10077000401DDFF874186DB2495D884238DADFF841
:1007800088066DB228444078002831D16DB25020DF
:1007900015FB00F0DFF850186DB2495D4018204499
:1007A00010F8500C002816D16DB2502015FB00F047
:1007B000DFF834186DB2495D4018204410F8A00CE1
:1007C000002808D1DFF804060078002810D1DFF8EF
:1007D000FC0505700CE0DFF8FC050078002802D16C
:1007E000DFF8F005057021002800C0B200F0CEFE51
:1007F000DFF814066DB2405D002800F08380DFF85A
:10080000DC070078002802D1DFF8D00705706DB250
:10081000322D20DBDFF8F8070068070038000021E0
:1008200001F064F801D2002007006DB2B5F13B0081
:1008300001F06EF8390001F085F88346DFF8A8076B
:1008400090F83B0001F06EF8594601F0E7F801F02E
:1008500027F906004CE0DFF884070078322804DB33
:10086000DFF8AC07006807001DE0DFF87C07DFF861
:100870006C17097808448079DFF86C17DFF85C277B
:10088000127811444978401A01F02CF90022DFF85F
:10089000843701F03FF90022DFF87C3701F00CFAD1
:1008A00001F036FB07003800002101F01FF801D2EB
:1008B000002007006DB2DFF824070078281A401ED8
:1008C00001F026F8390001F03DF88346DFF81807FB
:1008D000DFF8081709780844407801F023F85946F2
:1008E00001F09CF801F0DCF80600DFF8240707604F
:1008F0004E22022176B2300001F052FBDFF80417DD
:100900006DB24855DFF804056DB2405D002800F077
:100910008380DFF8CC060078002802D1DFF8C0061B
:1009200005706DB2322D20DBDFF8F006006807009D
:100930003800002101F040FB01D2002007006DB219
:10094000B5F13B0000F0E4FF390000F0FBFF834607
:10095000DFF8B80690F83B0000F0E4FF594601F0DC
:100960005DF801F09DF806004CE0DFF874060078B1
:10097000322804DBDFF8A406006807001DE0DFF87A
:100980008C06DFF85C16097808448079DFF87C165D
:10099000DFF84C26127811444978401A01F0A2F889
:1009A0000022DFF8703601F0B5F80022DFF8683673
:1009B00001F082F901F0ACFA07003800002101F0E3
:1009C000FBFA01D2002007006DB2DFF814060078B0
:1009D000281A401E00F09CFF390000F0B3FF834648
:1009E000DFF82806DFF8F81509780844407800F0A9
:1009F00099FF594601F012F801F052F80600DFF8AD
:100A00001C0607604E22022176B2300001F0C8FABF
:100A1000DFF8F4156DB24855DFF8EC036DB2405DB8
:100A2000002813D0DFF8E4036DB2405D00280DD03C
:100A3000DFF8D4056DB2405DDFF8C8156DB2495DD1
:100A4000401ADFF8C0136DB24855B5E0DFF8B803BF
:100A50006DB2405D00280DD0DFF8B0056DB2405D8D
:100A6000DFF8A0156DB2495D401ADFF898136DB23A
:100A7000485520E0DFF894036DB2405D00280DD0AA
:100A8000DFF884056DB2405DDFF85C156DB2495D3D
:100A9000401ADFF870136DB248550CE0DFF86C05B2
:100AA0006DB2405DDFF840156DB2495D401ADFF868
:100AB00054136DB24855DFF84C036DB2405DDFF85A
:100AC00030130978884206D2DFF838036DB2405DF2
:100AD000DFF81C130870DFF828030078DFF808152A
:100AE0006DB2495D884206D2DFF8FC046DB2405D0C
:100AF000DFF80C130870DFF814056DB2405DDFF805
:100B0000E4140978884206D2DFF800056DB2405D32
:100B1000DFF8D0140870DFF8F0026DB2405D0028F5
:100B200022D1DFF8E4026DB22844407800281BD0BF
:100B3000DFF8C4020078002816D10120DFF8B812CF
:100B40000870DFF8A8020570DFF898020078DFF877
:100B500098146DB2495D884206D2DFF88C046DB2FC
:100B6000405DDFF880120870DFF8A0026DB2405DD2
:100B7000002821D1DFF894026DB228444078002883
:100B80001AD0DFF878020078002815D10120DFF8AC
:100B90006C120870DFF840040570DFF870046DB265
:100BA000405DDFF844120978884205D2DFF85C0422
:100BB0006DB2405D8C490870DFF84C026DB2405D4B
:100BC000002805D0DFF83C046DB2405D814604E0AA
:100BD000DFF814046DB2405D81468C486DB2405D13
:100BE000002805D0DFF820046DB2405D804604E0A7
:100BF000DFF818046DB2405D80465FFA88F858FA55
:100C000089F0022190FBF1F0DFF8E0136DB2485556
:100C10006D1E8BE46F480078002806D06E4800787F
:100C2000002802D001206D4908702800C0B2824619
:100C3000DFF8AC03007800281BD0DFF8A0030078B1
:100C4000002816D061480078002812D1604800784A
:100C500000280ED12200634801786448007800F033
:100C600081FA220060480178DFF86C03007800F018
:100C70004DFB21005046C0B200F0D2F95848007830
:100C8000032814DADFF874060078401CDFF86C16CD
:100C900008700121002001F0BEF9DFF8600600783D
:100CA000322808DB0020DFF85816087003E0002027
:100CB000DFF8481608704A480078BDE8F28F70B532
:100CC00004003B25DFF83C060078002814D0DFF84C
:100CD0003C03EDB200EB0503DFF80C03EDB200EBD3
:100CE0000502EDB2502000FB05F004EB00012800E6
:100CF000C0B200F017FD54E0DFF80C0600780028C1
:100D000014D0DFF80803EDB200EB0503DFF8D802DA
:100D1000EDB200EB0502EDB2502000FB05F004EB54
:100D200000012800C0B200F03DFD3AE0EDB25020D5
:100D300000FB05F0204400F07BFC0600EDB25020E3
:100D400000FB05F0204400F0AEFCF6B2864214D35E
:100D5000DFF8B802EDB200EB0503DFF88C02EDB26C
:100D600000EB0502EDB2502000FB05F004EB0001A2
:100D70002800C0B200F0D6FC13E0DFF89002EDB21C
:100D800000EB0503DFF86002EDB200EB0502EDB207
:100D9000502000FB05F004EB00012800C0B200F079
:100DA00001FD1948EDB2405D002803D002208E49B4
:100DB000EDB248551548EDB2405D002804D04E20F4
:100DC000DFF84812EDB2485570BD0000AC24FF1F9B
:100DD000AD24FF1FAE24FF1FAF24FF1FB024FF1F51
:100DE000A624FF1FA224FF1FA324FF1FA424FF1F6C
:100DF0009D24FF1FAB24FF1FA024FF1FA124FF1F62
:100E0000A724FF1F380EFF1F780EFF1FB80EFF1F0D
:100E10002DE9F84300240025DFF8E00400780028DD
:100E200009D0DFF8F40790F9000007000220DFF88E
:100E300058170870A5E0DFF8E40700782130694909
:100E4000097888420ADADFF8D4070078654909781A
:100E50000818022190FBF1F0070027E03B20060074
:100E600076B2DFF8BC070078D0F13C00864216DB92
:100E70005E4876B2805DDFF8AC1776B272421144FC
:100E800091F83B1001FB0044DFF8980776B27142FD
:100E9000084490F83B0055FA80F5761EE0E74E22B4
:100EA000022194FBF5F001F07BF80700DFF87807EA
:100EB0000078002810D04948007800280CD04B4812
:100EC000DFF86417097840560700DFF85C07007800
:100ED000282816DAFF1C14E0DFF8500700780028F5
:100EE0000FD03F48007800280BD04048DFF83C176F
:100EF000097840560700DFF834070078282800DA20
:100F00007F1F4E2202217FB2380001F049F807000E
:100F1000DFF8040707707FB2282F08DA0120DFF816
:100F2000E41308700020DFF8E013087013E07FB2CC
:100F3000292F08DB0120DFF8D01308700020DFF82C
:100F4000C413087007E00020DFF8B8130870002011
:100F5000DFF8B4130870DFF8C8060078192805DB3D
:100F60002248807FDFF8201608700AE01F48DFF86B
:100F7000B01609784942084490F83C00DFF808169A
:100F800008702821DFF80006007800F031F840B240
:100F900000F0A8FDDFF83426DFF8343600F0BAFDA3
:100FA0008046894628213800C0B200F021F800F0C0
:100FB00099FDDFF81826DFF85C3600F0ABFD4246FD
:100FC0004B4601F061F801F0D3F8DFF8D417087050
:100FD0003800C0B2BDE8F283A524FF1F9E24FF1F86
:100FE0009F24FF1FA824FF1FF80CFF1F380DFF1FB1
:100FF00002008B1A180040B2002801D540B24042CE
:1010000040B27047B80DFF1FF80DFF1F780DFF1F8E
:10101000F80EFF1F0000F03F00001440FC0EFF1F01
:101020002DE9F84304000D003B208146200049468D
:10103000C0B2C9B2884280F08D80DFF888085FFABC
:1010400089F910F80900002811D0DFF87C08007831
:10105000002804D1DFF8D0050078002807D0DFF899
:101060006C085FFA89F910F80900070006E0DFF85C
:1010700060085FFA89F910F809000700DFF85408E2
:101080005FFA89F910F80900002811D0DFF8480844
:101090000078002804D1DFF894050078002807D0F4
:1010A000DFF838085FFA89F910F80900804606E091
:1010B000DFF82C085FFA89F910F8090080465FFA1A
:1010C00088F858FA87F0022190FBF1F006004E22D2
:1010D0000221F6B2300000F063FFDFF8E0175FFA9C
:1010E00089F901F809005FFA89F95020FFB200FB85
:1010F00009702844002181705FFA89F950205FFA55
:1011000088F800FB09802844002100F8021C5FFADF
:1011100089F95020DFF8A4175FFA89F911F809104E
:1011200000FB091000212954DFF890075FFA89F9C4
:1011300010F80900032807DBDFF880075FFA89F958
:1011400010F809004E2802DBB9F1010902E0B9F1FB
:1011500001096BE7D9F13C00401EDFF8C4140870A8
:10116000BDE8F1832DE9F04F83B004008B46914632
:101170003B20050020002900C0B2C9B2884280F09F
:10118000BA80DFF84007EDB2405D002800F0B18082
:10119000EDB2372D52DB2700DFF83407E4B2005DF3
:1011A000DFF82C17E4B2214411F8051C401A00F0B6
:1011B00099FC0022DFF8083700F0ACFC0022DFF8D1
:1011C000243700F079FD00F0A3FE80464046002160
:1011D00000F08CFB01D200208046781C0600F6B29D
:1011E0003C2E80F28580F6B2FFB2F01B00F090FB3F
:1011F000414600F0A7FB0090DFF8D406FFB2C05DC7
:1012000000F090FB009900F009FC00F049FC8246D8
:101210004E220221504600F0C3FEDFF8B016F6B2AF
:101220008855F6B25020DFF8A416F6B2895D00FBAF
:101230000610484400218170761CD0E7681C070026
:10124000DFF88C06FFB2C05D5FFA8BFBB0EB0B00E2
:1012500000F048FC0022DFF8683600F05BFCCDE9C6
:101260000001FFB2E4B2381B00F03CFC02000B00AE
:10127000DDE9000100F020FD00F04AFE8046404616
:10128000002100F033FB01D2002080463E00200008
:101290003100C0B2C9B288422AD2F6B2FFB2F01B06
:1012A00000F036FB414600F04DFB0090DFF82006D1
:1012B000FFB2C05D00F036FB009900F0AFFB00F01C
:1012C000EFFB82464E220221504600F069FEDFF815
:1012D000FC15F6B28855F6B25020DFF8F015F6B2DC
:1012E000895D00FB0610484400218170761ECEE720
:1012F00001E06D1E3EE7BDE8F78F0000B324FF1F3D
:101300009C24FF1FA924FF1FAA24FF1F2DE9F04FD3
:1013100083B004008B4691463B2005002000290045
:10132000C0B2C9B2884280F0BC80DFF8A805EDB237
:10133000405D002800F0B380EDB2372D53DB27006D
:10134000DFF89C05E4B2005DDFF89415E4B22144B7
:1013500011F8051C401A00F0C5FB0022DFF86035CB
:1013600000F0D8FB0022DFF87C3500F0A5FC00F08F
:10137000CFFD80464046002100F01EFE01D2002035
:101380008046781C0600F6B23C2E80F28780F6B2CA
:10139000FFB2F01B00F0BCFA414600F0D3FA009017
:1013A000DFF83C05FFB2C05D00F0BCFA009900F028
:1013B00035FB00F075FB82464E220221504600F0BC
:1013C000EFFDDFF81815F6B28855F6B25020DFF8B9
:1013D0000C15F6B2895D00FB06104844002100F8A8
:1013E000021C761CCFE7681C0700DFF8F404FFB28C
:1013F000C05D5FFA8BFBB0EB0B0000F073FB0022CB
:10140000DFF8BC3400F086FBCDE90001FFB2E4B2A6
:10141000381B00F067FB02000B00DDE9000100F063
:101420004BFC00F075FD80464046002100F0C4FDF5
:1014300001D2002080463E0020003100C0B2C9B277
:1014400088422BD2F6B2FFB2F01B00F061FA41469F
:1014500000F078FA0090DFF88804FFB2C05D00F079
:1014600061FA009900F0DAFA00F01AFB82464E2287
:101470000221504600F094FDDFF86014F6B2885562
:10148000F6B25020DFF85414F6B2895D00FB061066
:101490004844002100F8021C761ECDE701E06D1ED5
:1014A0003CE7BDE8F78F10B4DFF81034C0B2034456
:1014B0005B781A00D2B2022A1DDBC0B25023D2B22E
:1014C00003FB0023CB5C002B13D1C0B25023D2B25C
:1014D00003FB00230B4413F8013C002B09D100232C
:1014E000DFF8E043C0B22354DFF8E433C0B21A544B
:1014F00001E0521EDEE7DFF8C433C0B203445B787C
:101500001A00D2B24F2A1CDAC0B25023D2B203FB67
:101510000023CB5C002B12D1C0B25023D2B203FB0C
:1015200000230B445B78002B09D10023DFF8A44390
:10153000C0B22354DFF8A833C0B21A5401E0521CE1
:10154000DFE7DFF88033C0B21B5C002B09D0022339
:10155000DFF87C43C0B223540223DFF87043C0B2EB
:101560002354DFF87033C0B21B5C002B09D04E232C
:10157000DFF86C43C0B223544E23DFF86043C0B29F
:10158000235410BC70470000B124FF1F10B4DFF8D3
:101590004033C0B203445B781A00D2B24E2A13DA49
:1015A000C0B25023D2B203FB0023CB5C002B09D086
:1015B0000023DFF81043C0B22354DFF81433C0B265
:1015C0001A5401E0521CE8E710BC70479A999999A7
:1015D0009999E93F10B4DFF80833C0B203445B784F
:1015E0001A00D2B2032A13DBC0B25023D2B203FBDB
:1015F0000023CB5C002B09D00023DFF8D842C0B217
:101600002354DFF8DC32C0B21A5401E0521EE8E77E
:1016100010BC70479999C93FA30CFF1FA724FF1F57
:10162000A624FF1F1C04FF1FAC24FF1FAD24FF1FB7
:1016300030B40100012300204F2400252A0052B2BB
:101640004E2A2CDA5BB2002B13D052B28D5C002DE7
:1016500023D052B201EB02056D78002D1DD052B29D
:1016600001EB0205AD78002D17D01500EDB2280072
:1016700013E052B28D5C002D0FD152B201EB020586
:101680006D78002D09D152B201EB0205AD78002D25
:1016900003D11500EDB22C0001E0521CCFE7201A57
:1016A000C0B230BC704730B40100012300204F2489
:1016B0004F252A0052B2022A30DB5BB2002B15D034
:1016C00052B28D5C002D27D052B201EB020515F805
:1016D000015C002D20D052B201EB020515F8025C2E
:1016E000002D19D01500EDB22C0015E052B28D5C22
:1016F000002D11D152B201EB020515F8015C002D4D
:101700000AD152B201EB020515F8025C002D03D19B
:101710001500EDB2280001E0521ECBE7201AC0B23E
:1017200030BC7047F0B401250026340064B24E2C62
:1017300034DA6DB2002D18D064B20E5D002E2BD0BD
:1017400064B201EB04067678002E25D064B201EB7A
:101750000406B678002E1FD0002635000026DFF8DC
:10176000647187F83B60147016E064B20E5D002E61
:1017700012D164B201EB04067678002E0CD164B26B
:1017800001EB0406B678002E06D10026DFF844717E
:1017900087F83B601C7001E0641CC7E7F0BC704731
:1017A000B224FF1FF0B401254F26340064B2022C8E
:1017B00038DB6DB2002D1AD064B20E5D002E2FD032
:1017C00064B201EB040616F8016C002E28D064B256
:1017D00001EB040616F8026C002E21D0002635001D
:1017E0000026DFF8F07087F83B601C7018E064B2E8
:1017F0000E5D002E14D164B201EB040616F8016CE4
:10180000002E0DD164B201EB040616F8026C002E16
:1018100006D10026DFF8AC7087F83B60147001E059
:10182000641EC3E7F0BC704730B41400621E002C85
:1018300041D00C782300491CDFF8AC40DBB2DD114D
:10184000645D0470401CDFF8A040C3F38015EDB266
:10185000645D0470401CDFF89040C3F34015EDB2A6
:10186000645D0470401CDFF88040C3F30015EDB2E6
:10187000645D0470401CDFF87040C3F3C005EDB236
:10188000645D0470401CDFF86040C3F38005EDB276
:10189000645D0470401CDFF85040C3F34005EDB2B6
:1018A000645D0470401C104CDBB213F00105645DF4
:1018B0000470401CB9E730BC70470000380DFF1FB2
:1018C0000000F03F780EFF1F9F24FF1FB80DFF1F81
:1018D000F80CFF1FB80EFF1F9E24FF1FF80DFF1FFF
:1018E000780DFF1F00001440A00CFF1F4FF0807CFC
:1018F0001CEB400F94BF1CEB410F05E040EA010CCC
:101900005FEA4C0C01D28142704718BF8842704791
:10191000002840F10980F446404200F005F850F0FC
:1019200000406047002800BF0AD0B0FA80F188402C
:10193000D1F19D01C905020672F1004241EB102070
:10194000704701FEFF2212EAD05C1DBF12EAD1539C
:10195000944593422BE09C44D30780EA01021A404D
:1019600043EA002043EA0121A1FB0030410038BFD7
:1019700040007CF17F010BDBFE294ADA5B0842EA7A
:10198000C15153EA006373F1004C51EB10207047D2
:10199000D1F1080CDCF120012FDB5B0810FA01F11A
:1019A0000B4373F1004120FA0CF05041704794450D
:1019B0001CBF02EAD153934280EA010202F00042C6
:1019C0001DD0400019D0490017D05BB9634514D031
:1019D0000902B1FA81F39940BCEB030CC00140F05D
:1019E0000040C1E70002B0FA80FC10FA0CF0B3EB43
:1019F0000C0CC90141F00041B6E7100070474000EF
:101A00000AD0490008D010F1807F94BF11F1807F87
:101A100002E042F0FF407047D043704790EA010F68
:101A200044BF81F0004100F0CFBB00BF421A3CBF71
:101A3000801A89184FF0004CC0F3C752FF2A24D0F7
:101A4000C1F3C75313B3D21AD2F1190327DD4CEAFD
:101A500001214CFA03F321EA0303D140C20D4CEA01
:101A60000020401834BF20EA0C004CEA5000D20598
:101A700053EA006373EB0C0C52EB1020420012F19E
:101A8000807F38BF7047C00DC0057047490212BF44
:101A90009A4200EB5120F8E7D2F11703D9D57047ED
:101AA0004100090E7F3915D4D1F11F0114D4400033
:101AB00007D2C00140F00040C84048BF6FF000406E
:101AC0007047C00140F00040C8404CBF4FF000409C
:101AD000404270470020704700424FF0004058BF1E
:101AE000C0437047010040F10980F446404200F0D5
:101AF00005F851F000416047010000BF09D0B0FA7D
:101B000080F18840C91CC1F58461090501EBD02131
:101B100040057047B0B581EA030C0CF0004C40F270
:101B2000FF7515EA11541DBF15EA1357AC42AF42B9
:101B300039E0E41923EA455343F48013C90241F024
:101B4000004141EA505EC7021100A7FB02020028D3
:101B50004FF00000EEFB01204FF00001E3FB0721F6
:101B600018BF42F00102401800214941E3FB0E0179
:101B7000A4F580640F0302D252004041494154F160
:101B800001046CDD470872F1004250F1000051EB96
:101B90000451A1F580115CBF41EA0C01B0BD4CEAD3
:101BA00005510020B0BD05EA1357AC4214BFAF4247
:101BB00041E050EA410E1CBF52EA430E02E061468A
:101BC0000020B0BD24423C441BD15FEA070EF6D092
:101BD000090302BF01460020AEF1140EB1FA81F7ED
:101BE000AEEB070401FA07FE0C37C7F1200100FA3B
:101BF00007F7C8404EEA000E23EA455343F480132A
:101C0000A2E733F00043B3FA83F704BFB2FA82FECF
:101C100077440B3FE41BB7F1200E2FBF02FA0EF3FF
:101C2000BB40C7F1200E22FA0EFE38BF43EA0E0376
:101C3000BA40641C82E750EA410E14BF52EA430ED8
:101C40006FF000014FF4001717EB430F8ABF1946DE
:101C500017EB410FB5E74CEA05510020B0BDD4F1B8
:101C60000104B4F120070FDAC4F12007520828BF9D
:101C700042F0010210FA07F501FA07F7E1BF2A4323
:101C8000E0403843E1400FE0352C98DCC7F12004F8
:101C900052EA400220FA07F218BF42F0010231FA7C
:101CA00007F0A1400A43002172F1004250F1000008
:101CB00051EB0C01B0BDFE012DE9F04140F2FF7582
:101CC00081EA030C0CF0004C15EA11541DBF15EA13
:101CD0001357AC42AF42E9E0BC41C1F31301C3F377
:101CE0001303801A994143F4801304D2641E400008
:101CF000494180185941C90241EA5051B1FBF3F6FC
:101D000003FB1611A2FB0675D7EBC020A94102D236
:101D1000761E80185941C90241EA5051B1FBF3FEC9
:101D200003FB1E11A2FB0E75D7EBC020A94103D205
:101D3000AEF1010E80185941890241EA90517605B1
:101D400046EA8E2EB1FBF3F603FB1611A2FB0675D5
:101D5000D7EB8020A94102D2761E80185941C902D2
:101D600041EA50514EEA060EB1FBF3F603FB1611A1
:101D7000A2FB0675D7EBC020A94102D2761E8018BF
:101D80005941C90241EA5051B1FBF3F703FB171166
:101D9000A2FB0735D3EBC020A94167F100070CBFB8
:101DA000004247F0010766F3D5274FEA1E31B80815
:101DB00014F5806414DDBD0775F1004250EB0E5040
:101DC00051EB045111F5801F5CBF41EA0C01BDE8E5
:101DD000F0814CF07F6141F0E0410020BDE8F081EE
:101DE000BD076D0840EA0E5041F48011D4F10104A2
:101DF000B4F120060ADAC4F120060200E04001FA3C
:101E000006F3E1401843B24015430EE0342C14DCD5
:101E1000C6F1200445EA40056D0820FA06F2154394
:101E200021FA06F0A1400D43002175F1004250F166
:101E3000000051EB0C01BDE8F08100205FEA0C01CD
:101E4000BDE8F081CFB992185B41B3FA83F704BFC4
:101E5000B2FA82F6BF190B3FB7F120062FBF02FA84
:101E600006F3BB40C7F1200622FA06F638BF33431B
:101E7000BA401CB1E419641E2FE77F4231F00041E3
:101E8000B1FA81F404BFB0FA80F6A4190B3CB4F1A6
:101E900020062FBF00FA06F1A140C4F1200620FA67
:101EA00006F638BF3143A0403C1B16E7AC421ABFD0
:101EB00005EA1357AF4214E050EA41061CBF52EA4C
:101EC0004306BFE750EA4107304661461CBF41EA7E
:101ED0000551BDE8F08152EA430C08BFC143BDE89B
:101EE000F08100204FF4001616EB410F98BF16EB5F
:101EF000430F08BF16EB410F24BFC14305E016EBAB
:101F0000430F0CBF61464CEA0551BDE8F08100006B
:101F10004FEAF17CBCF1E04C2CBFBCF5001F11E096
:101F20005FEA4C0C34BFBCF17F5F2EE05FEA9C0C93
:101F30004FEA0C1C4FEA3C0CC10071F100414CEB24
:101F400050707047C90241EA5051C00218BF41F0B9
:101F5000010141F000414FEA6C50C0F10900212815
:101F600010D240EACC7CCCF1200C11FA0CF070F1CC
:101F70000040CCF1200C21FA0CF00CF0004C40EBAE
:101F80000C0070474FEACC707047490011F5001FF4
:101F900004D84FEACC10FF30C0057047C81770470F
:101FA0000300934201DB100004E0994201DB0800CA
:101FB00000E01800704700004FF0807C1CEB400FE1
:101FC00094BF1CEB410F05E040EA010C5FEA4C0CAA
:101FD00001D28842704718BF8142704710B5040093
:101FE00064B2042C07DA01220121264864B2005DA4
:101FF00000F056F90EE0042004002000441E40B218
:10200000002807D0012201211E4864B2005D00F0C3
:1020100047F9F2E710BD38B504000D0064B2042C96
:1020200007DA2900C9B2174864B2005D00F08FF9E1
:102030000EE0042004002000441E40B2002807D017
:102040002900C9B20F4864B2005D00F080F9F2E7E0
:1020500031BD10B5040064B2042C05DA094864B23D
:10206000005D00F09DF90CE0042004002000441EF7
:1020700040B2002805D0034864B2005D00F090F93A
:10208000F4E710BDF80BFF1FF0B44FF0004591EAE4
:10209000030C44BF6B4000F0ADB900BF841A71EB74
:1020A000030603D2001BB141121973414FF4001C07
:1020B0001CEB410F34BF7CEB430443E00C0DA4EB5D
:1020C0001356352E50DC45EAC323DB0A45EAC1210D
:1020D000C912B6F120050DDD63FA05F6EB4086EA7C
:1020E0000305124218BF45F00105C01851F1000167
:1020F0000CD213E062FA06F5F2405540F3415A4023
:10210000B340F3405A408018594107D349085FEA69
:1021100030005FEA350528BF45F0010501F5801163
:10212000420875F1004250F1000041EB0451F0BC4F
:102130004FF4001C1CEB410F38BF70470020090D05
:10214000090570471CEB410F10D252EA43060BD031
:10215000BCEB410F05D80C0DAB43661E342EB5DD2C
:1021600002E0AB4380185941F0BC7047F0BC7047A7
:10217000F446400D40EAC120490006D200F014F8B0
:10218000004248BF6FF00040604700F00DF84FF08C
:10219000004188428CBF084640426047400D40EAFB
:1021A000C120490080F00D8040F00040490DA1F5AC
:1021B0008061491C05D4D1F11F0154BFC840C0172C
:1021C00070474FF000007047431A4FF000423EBF87
:1021D0005340C01AC91800BFD3095FEAD05C13EBA3
:1021E000400F34BFB3EB410F40E07CEBD1530CD335
:1021F00042EA012122D8D1EB402009D3400A28BF6E
:102200005FEA500140EBCC507047401A15D04002B5
:10221000B0FA80F2521C9040400A4FEA3C23B3EBE4
:10222000026384BF00EB730007E040F400001A165D
:10223000DB07C2F10102D04018437047182BFCDCC9
:1022400031FA03F202FA03F3591A38BF42F00102DD
:10225000D2EB40203CBF4000ACF1010C5FEACC5C0B
:10226000C20572F100414CEB5020704713EB400F58
:102270000FD24B0009D0ACEBD153022B03DB490248
:10228000172BDDDD70479143401A4300D5D1002064
:10229000704713EB410FD0D36FF000007047000080
:1022A00070B504000D0016004FF480712000C0B21C
:1022B00000F056F96DB2002D11D14748E4B261111A
:1022C00050F821004449E4B2621151F822104969E2
:1022D000012214F01F039A409143416136E03E48C9
:1022E000E4B2611150F821003B49E4B2621151F8A7
:1022F00022104969012214F01F039A4011434161E1
:10230000F6B2002E11D13448E4B2611150F8210028
:102310000068012114F01F02914088432E49E4B265
:10232000621151F82210086010E02B48E4B26111EC
:1023300050F821000068012114F01F029140084369
:102340002549E4B2621151F82210086070BD10B442
:10235000C9B2002911D1204AC0B2431152F823203A
:102360001268012310F01F04A3409A431A4BC0B215
:10237000441153F824301A6010E0174AC0B24311D8
:1023800052F823201268012310F01F04A3401A43BF
:10239000114BC0B2441153F824301A6010BC70477E
:1023A00010B504000C48E4B2611150F821004069F6
:1023B00014F01F01C840C00703D47B21074800F078
:1023C0002BF90548E4B2611150F82100012114F005
:1023D0001F029140C16010BD700BFF1F54540000DC
:1023E000F0B44FF0004591EA030F44BF6B40FFF794
:1023F00055BE00BF841A71EB030604D26E40001B69
:10240000B141121973414FF4001C1CEB410F34BF52
:102410007CEB430684E00C0DA4EB1356362E7DDCDA
:10242000012E43DC45EAC32343EA525312BFD202D2
:1024300092025B08240545EAC12141EA5051D2EBE2
:10244000C020994125D407D1B0FA80F610FA06F1E0
:1024500064D00020203608E0B1FA81F6B140C6F120
:10246000200220FA02F21143B0404FEAF474B4EBB8
:10247000465434F001064FEA74040AD8D6F5001623
:10248000760D04F00044F04061FA06F25040F1404D
:102490004840C00A40EA415021F0004128BF5FEAAD
:1024A000500550F1000044EBD12137E045EAC32349
:1024B000DB0A45EAC121C90AB6F120050EDD42EA70
:1024C0000242120CC5F1200603FA06F6EB4042EA7E
:1024D00006056D42984161F100010DE062FA06F5D2
:1024E000F240554063FA06FC82EA0C02F3405A407F
:1024F0006D42904161EB030111F4801F05D1641E10
:10250000620502D06D004041494121F48011430829
:1025100075F1004350F1000041EB0451F0BC7047ED
:102520001CEB410F15D223F0004352EA43060BD0B7
:102530004FEA4C0CBCEB410F04D80C0D661E342E38
:10254000B7DDEBE7801A994150EA410608BF002148
:10255000E4E708BF1CEB430F28BF6FF00001DDE785
:1025600010B42B4A13684FF400740200D2B252091F
:1025700014FA02F21A43264B1A60264AC0B24311DB
:1025800052F82320012310F01F04A340C2F8A0300A
:10259000204AC0B2431152F82320C0B210F01F03EA
:1025A00042F8231010BC704710B4194A13684FF456
:1025B00000740200D2B2520914FA02F21A43144B08
:1025C0001A60144AC0B2431152F82320012310F0BC
:1025D0001F04A340C2F8A03031F4E0610D4AC0B23C
:1025E000431152F82320C0B210F01F0352F82320E9
:1025F00012F4E0621143074AC0B2431152F823209B
:10260000C0B210F01F0342F8231010BC7047000046
:1026100038800440CC0BFF1F38B504000D000020AB
:10262000FFF7DCFC2A002100174800F035F80020F5
:10263000FFF70FFD4FF47A7000F05BF8F2E738B562
:1026400004000D00210049B2052000F072F92000BD
:1026500032BD10B50D4804680120FFF7BFFC012012
:10266000FFF7F7FC0A48E4B20F2101FB04F100EB8D
:102670000102E4B22100074800F00EF84FF47A702E
:1026800000F037F8EBE700009856000004ED00E09A
:102690005804FF1F345600000EB400B582B003A9E1
:1026A000009102466B460121034878440A3000F04D
:1026B0006DF906BC5DF810FBE930000010B50400B0
:1026C000002C15D0B4F1807F03D329210F48FFF7E8
:1026D000A3FF00200E4908600E48046000200E4948
:1026E000086005200A49086009480068C003FBD556
:1026F00010BD10B504002000441E002804D0074877
:102700000068FFF7DBFFF6E710BD00009C540000F7
:1027100010E000E014E000E018E000E03824FF1FC3
:102720002DE9F84304000D0064B2002C08D0022CFF
:102730002CD018D3042C4FD03BD3052C5FD071E0A4
:10274000DFF83002006850F48060DFF8281208607B
:102750004FF440716620FFF703FF4FF4407167208C
:10276000FFF7FEFE5EE0DFF80C02006850F4006048
:10277000DFF8001208604FF440714320FFF7F0FECD
:102780004FF440714420FFF7EBFE4BE0DFF8E4012B
:10279000006850F48050DFF8DC1108604FF440719D
:1027A0006320FFF7DDFE4FF440716220FFF7D8FE93
:1027B00038E0DFF8C001006850F40050DFF8B411D1
:1027C00008604FF440715020FFF7CAFE4FF440718B
:1027D0005120FFF7C5FE25E0DFF89C01006850F4AA
:1027E0008060DFF8941108604FF440714E20FFF7CD
:1027F000B7FE4FF440714F20FFF7B2FE12E0DFF852
:102800007801006850F40060DFF86C1108604FF444
:1028100040718920FFF7A4FE4FF440718820FFF734
:102820009FFEFFE7DFF8540164B250F82400C0783F
:1028300010F0F300DFF8441164B251F82410C870AE
:10284000DFF8380164B250F824008078DFF82C11EA
:1028500064B251F82410887064B2002C02D064B2C3
:10286000012C06D1464800684FF47A7148438146EE
:1028700005E0444800684FF47A71484381462801D6
:10288000B9FBF0F00600B6B2B6F5005F02DB41F628
:10289000FF700600B9FBF5F0B6B2B0EB061007000A
:1028A000BFB2202F04DB40F203113748FFF7B4FE1C
:1028B000324864B250F82400007810F0E0008046FE
:1028C000C6F3042050EA08002C4964B251F82410E1
:1028D00008702A4864B250F824004670274864B251
:1028E00050F82400807A10F0E000804617F01F00B6
:1028F00050EA0800214964B251F8241088721F4838
:1029000064B250F82400007C50F088001B4964B287
:1029100051F824100874194864B250F82400C078A3
:1029200050F00C00154964B251F82410C870BDE88D
:10293000F183124A40B252F8202012791206F8D5DB
:102940000E4A40B252F82020D171704770B5040091
:102950000D0016003000461E002809D095F9000031
:10296000010049B2200040B2FFF7E3FF6D1CF1E720
:1029700070BD00003480044028800440E00BFF1F3D
:102980003824FF1F4024FF1FE45400002DE9F04FBE
:10299000A1B08246002016461D4602910B900DF113
:1029A00044086FF000490AE016F8011B0298D0476E
:1029B0000028029000F0AF820B98401C0B903078FA
:1029C000010001D10B98A8E22528EDD10020059047
:1029D00006900790089009900A9001E040F00100ED
:1029E00016F8011F2029F9D023290DD02B2904D056
:1029F0002D2906D030290AD00CE040F0020080B228
:102A0000EEE740F00400FAE740F00800F7E740F096
:102A10001000F4E72A290ED12968296051F8042B07
:102A20002960002A0D9204D5514240F004000D9116
:102A300080B2761C11E000210D9109E00D99494505
:102A400005D001EB810302EB430130390D91761C77
:102A50003278A2F130010A29F0D331782E2903D03F
:102A60004FF0FF310C911DE016F8011F2A2907D104
:102A700029682960761C51F8042B29600C9211E01A
:102A800000210C9109E00C99494505D001EB810327
:102A900002EB430130390C91761C3278A2F13001FF
:102AA0000A29F0D3ADF838000FF6D820317800F0BD
:102AB00077FD08B116F8010B8DF83A009DF83A0041
:102AC000682802BF31786829622005D06C2804BFCD
:102AD00030786C2803D171208DF83A00761C11A84B
:102AE000049016F8017BB7F1250024D02038022885
:102AF00040F2C380133800F0E8800B3800F05681B4
:102B0000401E00F02C81401E022840F2B680001FBB
:102B100000F02581401F00F08180401E00F0D5802C
:102B2000401E24D0C01E0BD0801E00F0CE80C01EE0
:102B300000F0CB8044E125208DF84400012049E1DC
:102B40002868286050F8044B286003940C9F002FDD
:102B500004D5204600F030FD074606E03A46002145
:102B6000204600F045FD00B1071B069733E12968B8
:102B70002960002251F8040B29600021CDE90001F1
:102B800011A80390DDE900019142049F08BF904223
:102B90004FF03C0C01D10C9AC2B100F00F0330335E
:102BA000DBB23A2BA8BF2733ACF101020009BB54BA
:102BB000944640EA017009090022914208BF904200
:102BC00004D0039A07EB0C039A42E6D307EB0C0000
:102BD0000390CCF13C010C980691814209DA401A2D
:102BE00008904FF6EF71BDF838000840ADF8380096
:102BF000F1E0002840F1EF809DF8380000F014006B
:102C0000102840F0E8800D98059A801A089A801ADA
:102C1000401A0128C0F2DF800890DCE09DF83A00FD
:102C200062281AD0682806D06A280CD06C281CD0DC
:102C3000712808D019E02868286050F8041B286023
:102C40000B980880C7E02868286050F8042B28609B
:102C50000B98C117C2E90001BDE02868286050F850
:102C6000041B28600B980870B5E02868286050F8AD
:102C7000041B28600B980860ADE02868C01D20F098
:102C800007022A60D2E9000108322A60CDE900017A
:102C9000002902D505982D210AE0BDF838008107EA
:102CA00002D505982B2103E0C00705D50598202102
:102CB00008F80010401C059011A8059908440390DD
:102CC0003946684600F0E8F985E09DF83A006C283E
:102CD0000DD0712818BF6A2809D12868C01D20F0BE
:102CE00007022A60D2E9000108322A6005E029685B
:102CF000296051F8040B29600021CDE900019DF8FD
:102D00003A00682803D1DDE9000180B20BE06228B7
:102D100003D1DDE90001C0B205E0742818BF7A28AC
:102D200004D1DDE900010021CDE900019DF8380062
:102D3000000732D5DDE900230020834208BF82422C
:102D40002BD047F02000782827D10598302108F8AB
:102D50000010401C411C059108F800701DE09DF812
:102D60003A00294600F0DCF8CDE90001DDE9002356
:102D700000218B4202DA05982D210AE0BDF83800C7
:102D8000810702D505982B2103E0C00705D50598DA
:102D9000202108F80010401C059011A8059908444E
:102DA00003903946684600F0F2F814E001200590DF
:102DB0002868286050F8041B28608DF844100AE049
:102DC00025208DF8440001200590380003D088F8B4
:102DD0000170022005900D980599401A0899401A33
:102DE0000699401A0999401A0799401A0A99471AF0
:102DF0009DF83800400710D42020012F8DF84000A6
:102E00000BDB3C46012310AA6946504600F0A2FBAA
:102E1000002840F08080641EF4D1DDF814B0BBF1CE
:102E2000000F11AC0CD014F8011B0298D0470028F9
:102E3000029070D00B98401CBBF1010B0B90F2D1AB
:102E400030208DF84000089C012C09DB012310AADA
:102E50006946504600F07EFB00285CD1641EF5D127
:102E6000DDF818B0039CBBF1000F0CD014F8011B67
:102E70000298D047002802904DD00B98401CBBF11F
:102E8000010B0B90F2D130208DF84000099C012CF1
:102E900009DB012310AA6946504600F05BFB0028BD
:102EA00039D1641EF5D103980699DDF81CB0441899
:102EB000BBF1000F0BD014F8011B0298D047029011
:102EC00048B30B98401CBBF1010B0B90F3D13020A1
:102ED0008DF840000A9C012C08DB012310AA6946EA
:102EE000504600F037FBB0B9641EF6D19DF83800AB
:102EF00040077FF564AD2020012F8DF84000FFF6DC
:102F00005EAD012310AA6946504600F023FB10B9BC
:102F10007F1EF6D153E54FF0FF3021B0BDE8F08FB2
:102F2000622826D068281DD06A2808D06C2827D0AF
:102F3000712804D0742823D07A280CD020E00868A7
:102F4000C01D20F007000860D0E9002308300860A9
:102F50001946104670470A680A6052F8040B0A6066
:102F6000002170470A680A6052F8040B0A6000B238
:102F70000BE00A680A6052F8040B0A6040B204E0F1
:102F80000A680A6052F8040B0A60C11770472DE9FD
:102F9000F343054608462F696F2808BF082405D06B
:102FA00041F02001782914BF0A2410243C26D5E9D9
:102FB0000023642818BF69289046994606D100214D
:102FC0008B4203DAD8F1000869EB490900208145FA
:102FD00008BF80450CD1286B50B9082C38D195F822
:102FE0003800000734D530203B2687F83B002FE01F
:102FF000701E00900646404649462246E31700F000
:1030000023FB02F13000C0B23A2803DB9DF8041024
:1030100051390818B855494640462246E31700F092
:1030200013FB804689460020814508BF804503D0B8
:10303000E868B9198842DBD3082C09D195F8380023
:10304000000705D5B85D302802D0761E3020B8556F
:10305000B919E960C6F13C00296BA861884208DA19
:10306000081A28624FF6EF71288F08402887BDE8BC
:10307000F38300290ED595F8381001F014011029BA
:1030800008D1696B6A69891A2A6A891A0E1A012E8F
:10309000A8BF2E62BDE8F3832DE9F34F8BB0D0E9D2
:1030A0000089006B002801AF48BF062005D404BF8B
:1030B00041F02000672802D101200B99086340F2FB
:1030C000FF720B984168C1F30A50904220D1080367
:1030D00002BF0B98006800280AD10B990320886171
:1030E0009DF8300061381A2858D30FF2AC4109E03E
:1030F0000B99032088619DF8300061381A284AD363
:103100000FF28C410B98C068032200F015FBFFE022
:10311000012807DA0B9800F04AFB012802DB0023A4
:103120000026ECE00B9ADFF854B1526840F2FE3111
:1031300061F31E520B994A6040F2FE31401A00B210
:1031400047F2975148434E4990FBF1F640464946B5
:103150000022002300F04EFB36B238BF89F0004950
:10316000C6F10707012F92461BDBF80707D5524629
:103170005B4640464946FEF7CDFC804689465046B0
:10318000594652465B467F10FEF7C4FC002F82462C
:103190008B46EAD126E00FF2F431B3E70FF2F431B7
:1031A000B0E77F420024374D12E0F80707D55246BA
:1031B0005B4620462946FEF7ADFC04460D465046C8
:1031C000594652465B46FEF7A5FC7F1082468B4669
:1031D000002FEAD14046494622462B46FEF76CFDB9
:1031E000804689469DF830000B99DFF89CB0096B4A
:1031F00040F02005662D0CBF06F10A000620471896
:10320000142FA8BF132730208DF804000DF10504FA
:10321000012F3BDB40464946FEF7C0FF014604F163
:10322000080204234FF00A0CB1FBFCFC0CEB8C04ED
:10323000A1EB4401303102F8011C0A21BCFBF1FE74
:103240000EEB8E04ACEB440430345B1E714602F886
:10325000024DE7D1083F012F02F10804D8DBFEF749
:103260004BFC02460B4640464946FFF7B9F80022A0
:103270005B46FEF74FFC80468946CBE700002440C2
:10328000A08601000000F03F84D797410DF10500B2
:10329000201A0DF1050702E0401E761E7F1C3978CA
:1032A0003029F9D0662D08BF711C03D0652D0CBFE5
:1032B000012100210B9A126B8B181BB29842B8BFE8
:1032C00003461BB219001AD4814204DA785C35280F
:1032D000A8BF392000DA30207A18521E00E05B1EA9
:1032E00012F80149491E8442F9D0392802D1785C8C
:1032F000401C7854002902D57F1E5B1C761C36B218
:103300009DF830100B9800961BB23A4600F003F877
:103310000DB0BDE8F08F2DE9F04786B006468A462D
:1033200090461D4600F09BFA012D406A376B90F8DD
:10333000009002DA01250FF264284AF02000BDF95E
:103340003840662808BF641C13D0672840F08A8084
:1033500014F1040F75DBBC4273DA96F83800641C74
:10336000000702D4BD42B8BF2F4624B23F1B48BF5E
:10337000002724B2F068B169012C23DA4A1C3023FB
:103380004354012F03DA96F83800000703D5F0689C
:1033900000F80290521CE742B8BF7C4224B260425F
:1033A0007062E719AF42B261B8BF3D46F068B369D9
:1033B0002DB2F5612A464146184400F0BDF9781B4C
:1033C000B062B0E022469542084416DA2A464146E9
:1033D00000F0B2F9B1696918601B012FB161706228
:1033E00003DA96F83800000705D5F06800F8019078
:1033F000F069401CF061B76295E0414600F09CF92D
:10340000B06920182D1B012F03DA96F83810090730
:1034100003D5F16801F80090401CB0612DB2AF42B5
:10342000B8BF3D46F068B3692DB22A4608EB0401E7
:10343000184400F081F9B0692818B061781B7062F7
:1034400071E0BD4204DA96F83810090758BF2F46DC
:103450007F1E48BF0027BAF1670F0CBF4FF0650A07
:103460004FF0450AB169F368481CB061012F18F8A4
:10347000012B5A5403DA96F83810090717D5F1686A
:10348000431CB36101F80090012F10DB6D1E2DB2BB
:10349000AF42B8BF3D46F0682DB22A4641461844B7
:1034A00000F04AF9B0692818B061781B7062F068C2
:1034B000B1690144200081F800A004D42B20487099
:1034C00001F1020804E02D224A7001F10208644271
:1034D000002502AF08E00A22684600F0D9F90198F9
:1034E00007F8010B6D1C009C21B20129F3DA022DB3
:1034F00006DA4AF02000652804BF302008F8010BE6
:103500004DB9302008F8010B07E06D1E02A8405DA0
:10351000303008F8010B012DF7DAF068B169084482
:10352000A8EB0000F06196F8380000F014001028B5
:103530000DD17069B1690818716A0818F169081825
:10354000B16A0818716B8842BCBF081A306206B0B5
:10355000BDE8F087F8B504460D4616461F46002024
:1035600077B116F8011BA868A047A86030B1E86AD7
:10357000401CE86200207F1EF3D1F2BD4FF0FF3007
:10358000F2BD0000686A6C747A4C00006E616E00D7
:103590004E414E00696E6600494E46003000000004
:1035A0000278C9B28A421AB11CBF10F8012FF9E79C
:1035B00018BF00207047000000F10103810704D00C
:1035C00010F8011B89B18107FAD10268B2F101310B
:1035D000914311F0803F04BF50F8042FF6E710F834
:1035E000011B11B110F8011BFBE7C01A7047000066
:1035F000C9B2830706D0521E22D310F8013B99426C
:10360000F7D11FE0083A13D302F1040241EA012185
:1036100041EA014150F8043B121F21BF4B40A3F186
:10362000013C2CEA030C1CF0803FF3D0C9B2001F10
:10363000083210F8013B521E28BF91EA030FF8D858
:1036400018BF0120401E70471B4213D1094236D1DA
:103650002AB18446B0FBF2F002FB10C2704700F0C2
:103660001FB9FCD30022002370470B000200002189
:1036700000207047904271EB030CF6D370B5B1FA9D
:1036800081F4B3FA83F52C1BA340C4F1200532FA70
:1036900005F63343A2405FF00046E64002E05B08D7
:1036A0005FEA3202841A71EB030524BF20462946E3
:1036B0007641F4D302000B003000002170BD012AD6
:1036C000CFD970B5140C20D0B1FA81F4B2FA82F5DA
:1036D000C4F120046419B4F12006D6D3B2405FF0DF
:1036E0000044F440002502E052085FEA3303C61AA2
:1036F00071EB020E24BF3046714664416D41F3D335
:1037000002000B002000290070BD0C46B1FBF2F155
:1037100002FB11452D0445EA1045B5FBF2F402FB0E
:10372000145580B240EA0545B5FBF2F002FB105299
:1037300040EA044070BD000062B38B0708D0521EFF
:1037400011F8013B00F8013B00F024808B07F6D113
:10375000830740F0208000BF103A07D330B4B1E8AF
:103760003810103AA0E83810F9D230BC530724BF03
:10377000B1E80810A0E8081044BF51F8043B40F835
:10378000043BD20724BF31F8022B20F8022B44BFA0
:103790000B7803707047083A07D3B1E80810083A6D
:1037A00040F8043B40F804CBF7D25307E4E730B4C9
:1037B000436803F000420121C3F313034360002B6D
:1037C00004BF0368002B08D10DE00368DD0F45EA54
:1037D000440444605B000360491E4468E302F4D57E
:1037E000C4F31303436043681A434260084630BC85
:1037F000704700004FF4001C1CEB410F94BF1CEB02
:10380000430F09E041EA030C50EA4C0C52EA0C0C5D
:1038100003D2994208BF9042704714BF8B42824244
:103820007047000080B5134800F03BF80FF24C02DF
:103830000FF244010160426241600FF24402826370
:1038400081600FF24402C160016141618161816266
:10385000C16201634163C2630164416401BD10B58B
:10386000044800F01EF80446206808B9FFF7DAFFA4
:10387000204610BDB824FF1F000000002E000000ED
:1038800066616C736500000074727565000000006D
:1038900091FBF2F303FB1211C0E900317047000005
:1038A000704770470F0000000F000000E420000088
:1038B0000101010204070B0F10121418191B1D1E21
:1038C0001E1E10130F0F0D0D0C0C0B0B0806010123
:1038D00001010101010101010403030201010101D0
:1038E00001010101010101010101010200000000CB
:1038F00000000000000000000000000000000000C8
:10390000000000000000000000004E6F6E4D61736B
:103910006B61626C6500000000486172644661750D
:103920006C740000000000004D656D4D616E6167B4
:10393000656D656E7400004275734661756C740048
:1039400000000000000055736167654661756C7486
:103950000000000000000000000000000000000067
:103960000000000000000000000000000000000057
:103970000000000000000000000000000000000047
:103980000000000000000000000000000000000037
:1039900000535643616C6C00000000000000000002
:1039A00044656275674D6F6E69746F720000000048
:1039B0000000000000000000000000000000506552
:1039C0006E6453560000000000000000005379733D
:1039D0005469636B0000000000000000444D41305A
:1039E0000000000000000000000000444D413100D4
:1039F00000000000000000000000444D41320000C3
:103A0000000000000000000000444D4133000000B1
:103A10000000000000000000444D413400000000A0
:103A200000000000000000444D413500000000008F
:103A3000000000000000444D41360000000000007E
:103A40000000000000444D4137000000000000006D
:103A500000000000444D413800000000000000005C
:103A6000000000444D41390000000000000000004B
:103A70000000444D41313000000000000000000013
:103A800000444D4131310000000000000000000002
:103A9000444D4131320000000000000000000044AD
:103AA0004D41313300000000000000000000444D93
:103AB00041313400000000000000000000444D418E
:103AC000313500000000000000000000444D415F5F
:103AD0004572726F720000000000004D434D0000FF
:103AE000000000000000000000004654464C0000AA
:103AF000000000000000000000526561645F436F39
:103B00006C6C6973696F6E004C56445F4C5657007D
:103B1000000000000000004C4C57000000000000B6
:103B20000000000000005761746368646F67000064
:103B30000000000000524E4700000000000000009E
:103B40000000000049324330000000000000000087
:103B50000000004932433100000000000000000076
:103B60000000535049300000000000000000000039
:103B70000053504931000000000000000000000028
:103B800053504932000000000000000000000043D4
:103B9000414E305F4F525F4D425F62756600434158
:103BA0004E305F4275735F4F666600000043414EC2
:103BB000305F4572726F72000000000043414E306A
:103BC0005F54785F5761726E696E6743414E305F34
:103BD00052785F5761726E696E6743414E305F572E
:103BE000616B655F557000000052657365727665A4
:103BF00064353100000000005265736572766564BB
:103C00003532000000000043414E315F4F525F4D9E
:103C1000425F6275660043414E315F4275735F4F8C
:103C2000666600000043414E315F4572726F72005C
:103C30000000000043414E315F54785F5761726E5F
:103C4000696E6743414E315F52785F5761726E69AA
:103C50006E6743414E315F57616B655F5570000081
:103C600000526573657276656435390000000000A6
:103C70005265736572766564363000000000005549
:103C8000415254305F52585F545800000000554173
:103C90005254305F4552520000000000005541521E
:103CA00054315F52585F545800000000554152543F
:103CB000315F45525200000000000055415254321D
:103CC0005F52585F54580000000055415254325F13
:103CD00045525200000000000055415254335F52DB
:103CE000585F54580000000055415254335F45520C
:103CF0005200000000000055415254345F52585F9A
:103D000054580000000055415254345F455252004F
:103D1000000000000055415254355F52585F54581E
:103D20000000000055415254355F455252000000DA
:103D3000000000414443300000000000000000008B
:103D4000000041444331000000000000000000007A
:103D500000434D5030000000000000000000000053
:103D6000434D5031000000000000000000000043FF
:103D70004D503200000000000000000000004654DA
:103D80004D30000000000000000000000046544DCF
:103D900031000000000000000000000046544D32D9
:103DA0000000000000000000000000434D5400002F
:103DB000000000000000000000005254430000001A
:103DC0000000000000000000005265736572766517
:103DD00064383300000000005049543000000000F7
:103DE00000000000000000504954310000000000B5
:103DF00000000000000050495432000000000000A4
:103E00000000000000504954330000000000000092
:103E1000000000005044423000000000000000009C
:103E20000000005553423000000000000000000078
:103E300000005553424443440000000000000000CD
:103E400000454E45545F313538385F54696D6572B1
:103E5000454E45545F5472616E736D697400004540
:103E60004E45545F52656365697665000000454EB6
:103E700045545F4572726F72000000000049325372
:103E800030000000000000000000000053444843E0
:103E9000000000000000000000000044414330002A
:103EA0000000000000000000000044414331000019
:103EB00000000000000000000054534930000000E2
:103EC00000000000000000004D434700000000001B
:103ED000000000000000004C5054696D6572000045
:103EE0000000000000005265736572766564313031
:103EF0003200000000504F5254410000000000000A
:103F000000000000504F525442000000000000002A
:103F1000000000504F525443000000000000000019
:103F20000000504F52544400000000000000000008
:103F300000504F52544500000000000000000000F7
:103F40005265736572766564313038000000005246
:103F50006573657276656431303900000000526522
:103F6000736572766564313130000000005265730C
:103F70006572766564313131000000005265736509
:103F800072766564313132000000005265736572EB
:103F900076656431313300000000526573657276D6
:103FA00065643131340000000052657365727665D6
:103FB00064313135000000005265736572766564C6
:103FC00031313600000000526573657276656431E8
:103FD00031370000000052657365727665643131D7
:103FE00038000000005265736572766564313139BE
:103FF00000000000008003400090034000800B4060
:104000000000000000F00F4040F00F4080F00F4033
:10401000C0F00F4000F10F40F0000A1D3000180002
:1040200032001801600018186400181A6E00181F7A
:10403000780013187D00131A8200131C8C000E12D6
:1040400096000E15A0000E18AA000E1BB4000E1E3E
:10405000C8000C1CE1000B1EFA000A1F0001090831
:104060000090044000A0044000B0044000C00440A0
:1040700000D0044000A0064000B0064000C006404A
:1040800000D0064000A00E4000B00E4050515253E8
:104090000DC1110009030CD01240173F185019032D
:1040A0001A783200A00A63E0ACFF650C6600670076
:1040B00029142C1E2A007E0C7F16802A814E8261D4
:1040C000836F847B8586868E879788A489AF8AC50F
:1040D0008BD78CE88D204A00491347084B144C17A6
:1040E000460522992303A6049B009CFFAB069E1164
:1040F0009F020000020401014C24FF1F9C24FF1FAB
:104100004C24FF1F4C24FF1F4C24FF1F9D0CFF1F3E
:10411000840CFF1F000000000000000000000000F1
:10412000000000000000000000000000000000008F
:1041300000000000FF00282801310000DFF800F037
:10414000A90CFF1FDFF89C1340B231F8201040B2D9
:104150000128C0F26C8140B2112880F268810022EF
:10416000DFF884331A7089B22F2904DA0022DFF8CD
:1041700078335A7079E089B25D2904DA0122DFF8D8
:1041800068335A7071E089B28B2904DA0222DFF8B1
:1041900058335A7069E089B2B92904DA0322DFF88A
:1041A00048335A7061E089B2E72904DA0422DFF863
:1041B00038335A7059E089B2B1F58A7F04DC0522A0
:1041C000DFF824335A7050E089B2B1F5A17F04DCE6
:1041D0000622DFF814335A7047E089B2B1F5B87F90
:1041E00004DC0722DFF800335A703EE089B2B1F5F3
:1041F000CF7F04DC0822DFF8F0325A7035E089B254
:10420000B1F5E67F04DC0922DFF8DC325A702CE0DD
:1042100089B2B1F5FD7F03DC0A22B34B5A7024E06A
:1042200089B2B1F50A7F03DC0B22AF4B5A701CE058
:1042300089B240F25722914203DA0C22AA4B5A70FB
:1042400013E089B2B1F5217F03DC0D22A64B5A7031
:104250000BE089B240F2B322914203DA0E22A24B64
:104260005A7002E00F22A04B5A7089B21A2903DA61
:1042700000229D4B9A7069E089B2332903DA01224A
:10428000994B9A7062E089B24C2903DA0222964B6C
:104290009A705BE089B2652903DA0322924B9A7027
:1042A00054E089B27E2903DA04228F4B9A704DE0E4
:1042B00089B2972903DA05228B4B9A7046E089B2BE
:1042C000B02903DA0622884B9A703FE089B2C929E7
:1042D00003DA0722844B9A7038E089B2E22903DAC4
:1042E0000822814B9A7031E089B2FB2903DA092256
:1042F0007D4B9A702AE089B2B1F58A7F03DA0A22EF
:10430000794B9A7022E089B2B1F5967F03DC0B22DB
:10431000754B9A701AE089B2B1F5A37F03DA0C22CB
:10432000714B9A7012E089B2B1F5AF7F03DC0D22B8
:104330006D4B9A700AE089B2B1F5BC7F03DA0E22A8
:10434000694B9A7002E00F22674B9A7089B21A2962
:1043500003DA0022644BDA7069E089B2332903DAA8
:104360000122614BDA7062E089B24C2903DA022241
:104370005D4BDA705BE089B2652903DA03225A4BA0
:10438000DA7054E089B27E2903DA0422564BDA70DF
:104390004DE089B2972903DA0522534BDA7046E0E3
:1043A00089B2B02903DA06224F4BDA703FE089B2B6
:1043B000C92903DA07224C4BDA7038E089B2E229C6
:1043C00003DA0822484BDA7031E089B2FB2903DABC
:1043D0000922454BDA702AE089B2B1F58A7F03DA07
:1043E0000A22414BDA7022E089B2B1F5967F03DCF4
:1043F0000B223D4BDA701AE089B2B1F5A37F03DAE4
:104400000C22394BDA7012E089B2B1F5AF7F03DCD0
:104410000D22354BDA700AE089B2B1F5BC7F03DAC0
:104420000E22314BDA7002E00F222F4BDA70704708
:1044300010B50400200040B2FFF784FE2B4800783E
:1044400010F0FD00294908702848007850F010004D
:1044500026490870B8202649087026480078C0060A
:10446000FBD424480078C0F38100C0B20228F8D100
:104470001D48C3781C4882781B4841781A48007848
:10448000FFF75CFE174864B200EB8400807810F000
:104490001F0019490870134864B200EB8400C0780B
:1044A00010F01F0050F040001449087011480078C7
:1044B0008006FBD50F4800784006FBD50C480078F5
:1044C00010F03F000A4908700A480078C0F38100E4
:1044D000C0B20328F8D1034864B230F82400C0B257
:1044E00010BD0000840BFF1FC80BFF1F01400640DA
:1044F0000040064006400640044006400540064095
:1045000038B504000D0064B2002C03D0022C66D034
:1045100049D380E0DFF84C03006850F08070DFF88A
:10452000441308606DB2002D0BD0022D15D00ED3B0
:10453000042D1ED017D3062D27D020D3072D2AD027
:104540002FE04FF480614120FEF70AF82AE04FF493
:1045500080614220FEF704F824E04FF4806143209C
:10456000FDF7FEFF1EE04FF480614420FDF7F8FFE9
:1045700018E04FF480616420FDF7F2FF12E04FF481
:1045800080616520FDF7ECFF0CE04FF48061662050
:10459000FDF7E6FF06E04FF480616720FDF7E0FFDE
:1045A00000E038E037E0DFF8BC02006850F000704F
:1045B000DFF8B01208606DB2002D02D0012D06D0D8
:1045C0000BE04FF440712020FDF7CAFF06E04FF4E6
:1045D00040710D20FDF7C4FF00E01CE01BE0DFF898
:1045E0008802006850F08070DFF87C1208606DB2BD
:1045F000002D02D0012D06D00BE04FF440710A20AF
:10460000FDF7AEFF06E04FF440710B20FDF7A8FF69
:1046100000E000E0FFE731BD2DE9F84F04000D0098
:1046200016001F0064B2002C0ED064B2012C02D020
:1046300064B2022C02D16DB2022D05DB40F285116D
:10464000DFF82802FDF7E8FF290049B2200040B258
:10465000FFF756FFDFF8180200684FF47A714843FD
:1046600080465FEA1840B0FBF6F0814600208246A3
:104670001FFA89F9484650FA0AF0012802DB1AF1BC
:10468000010AF5E75FFA8AFABAF1080F05DB4FF481
:10469000D071DFF8D801FDF7BFFF404630FA0AF0CD
:1046A000B0FBF6F081461FFA89F9DFF8C80164B261
:1046B00040F8249064B2002C03D0022C18D00BD305
:1046C00021E01FFA89F919F1010000FB07F06421CC
:1046D000B0FBF1F0834616E01FFA89F919F10100E9
:1046E00000FB07F042F21071B0FBF1F083460AE0E4
:1046F0001FFA89F919F1010000FB07F06421B0FBF2
:10470000F1F08346FFE7DFF8700164B250F824004F
:104710006DB200EBC500DFF8601164B251F82410EF
:104720006DB201EBC501C96831F00401C160DFF869
:10473000480164B250F824006DB200EBC500282196
:10474000C1605FFA8AFA1AF0070050F00800DFF83B
:10475000281164B251F8241008601FFA89F9DFF8B3
:10476000180164B250F82400C0F808900020DFF867
:10477000081164B251F82410C864DFF8FC0064B278
:1047800050F824006DB200EBC5001FFA8BFBC0F897
:1047900010B00020DFF8E01064B251F82410486037
:1047A000BDE8F18F2DE9F04104000D0016005FF027
:1047B000000864B2002C0ED064B2012C02D064B2A6
:1047C000022C02D16DB2022D05DB4FF4F371DFF83C
:1047D0009C00FDF721FF64B2002C03D0022C03D013
:1047E00001D30AE009E008E0652E05D34FF4FA7121
:1047F000DFF87800FDF710FFFFE7DFF8780064B21C
:1048000050F82400804664B2002C03D0022C14D04F
:1048100009D31BE018F1010000FB06F06421B0FB96
:10482000F1F0070012E018F1010000FB06F042F27F
:104830001071B0FBF1F0070008E018F1010000FB77
:1048400006F06421B0FBF1F00700FFE7DFF8280075
:1048500064B250F824006DB200EBC5000761BDE8FA
:10486000F08100003C80044030800440705500001E
:104870004024FF1F1824FF1F600BFF1F01B4BDF869
:104880000000002805D0BDF80000401EADF8000073
:10489000F5E701B0704780B5012201211A20FDF72C
:1048A000FFFC012201211920FDF7FAFC23211A2027
:1048B000FDF77AFE23211920FDF776FE01BD80B5B4
:1048C00001207A4908600120794908604FF4C870D6
:1048D000FFF7D4FF00207749086077480068002878
:1048E00004D1012073490860002016E001207149BD
:1048F000086000206D4908604FF4C870FFF7BEFFE4
:1049000000206B4908606C480068002804D0012032
:1049100068490860002000E0012002BD80B5002049
:10492000634908600020614908604FF4C870FFF7D0
:10493000A5FF01205E4908604FF4C870FFF79EFF95
:1049400001205A4908604FF4C870FFF797FF01BD76
:1049500080B50020564908604FF4C870FFF78EFFFD
:104960000020524908604FF4C870FFF787FF01200C
:104970004F4908604FF4C870FFF780FF00204C4992
:1049800008604FF4C870FFF779FF01BD80B50020C3
:10499000474908604FF4C870FFF770FF0120434992
:1049A00008604FF4C870FFF769FF012040490860B4
:1049B0004FF4C870FFF762FF00203D4908604FF4D4
:1049C000C870FFF75BFF01BD80B500203849086063
:1049D0000020384908604FF4C870FFF74FFF0120EE
:1049E000334908604FF4C870FFF748FF3248006849
:1049F000002807D001202F49086000202C490860BA
:104A0000002006E001202B490860002028490860AA
:104A1000012002BD38B5050008242000441EC0B2A4
:104A2000002818D0280603D501202049086002E09C
:104A300000201E4908606D004FF4C870FFF71EFF8C
:104A400001201B4908604FF4C870FFF717FF0020D2
:104A500017490860E1E731BD38B50824002500207A
:104A6000144908602000441EC0B2002815D06D0013
:104A700000200F4908604FF4C870FFF7FFFE0120C7
:104A80000B4908604FF4C870FFF7F8FE0A48006849
:104A90000028E7D055F00105E4E70120054908604A
:104AA000002003490860EDB2280032BD6400FE43D7
:104AB0006800FE43E402FE436402FE4370B5040056
:104AC0000D0000262900C9B2200080B200F00AF8CB
:104AD000002805D1761CF6B2142EF3D1002000E098
:104AE000012070BD38B504000D00FFF7E8FE002876
:104AF00001D1002019E04220FFF78CFFFFF764FF8F
:104B0000002803D1FFF70AFF00200EE02000C0B20A
:104B1000FFF780FFFFF758FF2800C0B2FFF77AFFCA
:104B2000FFF752FFFFF7FAFE012032BDF8B504008F
:104B30000D00160000273200D2B2290089B22000F1
:104B400000F00AF8002805D17F1CFFB21E2FF2D119
:104B5000002000E00120F2BD70B504000D00160039
:104B6000FFF7ADFE002801D1002037E04220FFF71B
:104B700051FFFFF729FF002803D1FFF7CFFE0020E8
:104B80002CE03000C0B2FFF745FFFFF71DFFFFF735
:104B9000C5FEFFF794FE002801D100201EE043204F
:104BA000FFF738FFFFF710FF002803D1FFF7B6FE2D
:104BB000002013E0ADB2002D0DD0FFF74DFF2070A7
:104BC000ADB2012D02D1FFF7E1FE01E0FFF7C0FE1B
:104BD000641C6D1EEEE7FFF7A1FE012070BD000012
:104BE000012110F01F0291407C4A40B2430942F873
:104BF00023107047012110F01F029140784A40B203
:104C0000430942F82310704710B50400754804604A
:104C100000F08AF80028FBD000F002F8002010BD58
:104C2000E0B5012002904FF4167001900020009032
:104C300007236C4802686C49002000F029F96B4892
:104C4000006840084000694908605720FFF7D2FF1C
:104C50006748006850F00100654908600020FFF7D0
:104C6000BFFF64490720FDF77BFC63491020FDF777
:104C700077FC07BD80B5614890F9000004281BD17E
:104C800003205E4908705720FFF7B4FF80205C497D
:104C900008605C480068401C5A4908605348006836
:104CA00050F00100514908608020554908604D4886
:104CB00000685549086005E05720FFF79BFF022078
:104CC0004E49087001BD01204C49087001204F4930
:104CD000087000204B4908604548006850F001000A
:104CE00043490860704780B50420444908705FF06C
:104CF000FF30434908605720FFF772FF3F4890F9A3
:104D0000000001280FD03D4890F900000228F5D19D
:104D100004203A4908705FF0FF3039490860572095
:104D2000FFF75EFFEAE701BD10B582B00024002066
:104D30008DF80000FFF7AFFD80211220FFF7BEFEC7
:104D4000002804D13248FDF7A7FC002044E03220BF
:104D5000FDF7CFFC0B2201216846FFF7E7FE002894
:104D600004D12C48FDF798FC002035E09DF8001098
:104D70002948FDF791FC294801782948FDF78CFC6A
:104D80009DF80000212826D100200400200023499E
:104D9000097880B289B2884218D22248A4B200EBC6
:104DA000440041781F48A4B210F8140080B2FFF705
:104DB00085FE002808D11B48A4B210F814101A4828
:104DC000FDF76AFC002007E0641CDFE71748FDF7E9
:104DD00063FC012000E0002016BD000000E100E0BF
:104DE00080E100E04424FF1F11F00F400C800040E0
:104DF000248000400201020012010900A40CFF1FE0
:104E0000A09004404824FF1F10900040B424FF1FCE
:104E100070570000C4570000BC560000A50CFF1FCF
:104E200014570000FC0BFF1F88570000E0560000DD
:104E30002DE9F84380460C005FEA981010F0070057
:104E4000C0B25FEA40194046103810F03F00C0B2CF
:104E5000C000050015EB09000700E4B217EBC40021
:104E6000401E060030003900C0B2C9B288420DD3DE
:104E7000002200213800C0B2FDF712FA4FF4817110
:104E80003800C0B2FDF76CFB7F1CEBE7BDE8F18397
:104E90002DE9F84F04000D0016009B469DF928707F
:104EA000DDF82C80DDF830907FB2002F02D15FF06A
:104EB000010A0DE07FB2012F02D15FF0020A07E084
:104EC0007FB2022F02D15FF0040A01E05FF0100A06
:104ED0007FB2002F05D15A48854202D35948A842D3
:104EE0001DD27FB2012F09D15548854206D35648BD
:104EF000A84203D315F00300032810D17FB2022F7C
:104F000009D14F48854206D35048A84203D315F033
:104F10000300002803D061214D48FDF77DFBB8F563
:104F2000004F03D363214A48FDF776FB49480068E8
:104F300050F00200474908604748006850F00200FE
:104F400045490860454864B261014550434864B230
:104F50006101084406610020404964B262011144C5
:104F600088805FFA8AFA3D4864B261010844A0F87B
:104F700014A07FB2380210F4E0607FB217F007018E
:104F80000843364964B262011144C8804046400477
:104F9000400C324964B262011144C8824046400468
:104FA000400C2E4964B262011144C8832C48006849
:104FB00030F080002A4908605FFA8AFA274864B214
:104FC00061010844C0F808A00020244964B26201CD
:104FD0001144C8605FEAC97002D4D8F1000000E053
:104FE00000201E4964B26201114488614CF20A003B
:104FF0001A4964B26201114488835846C0B240091C
:10500000313050F08000174964B2085516495846AF
:10501000C0B2FDF7A5FA5146C9B22800FFF708FF54
:10502000124800680121A1408843104908601048D7
:1050300000680121A14008430D490860BDE8F18FD7
:1050400010F00F4013F10F4012F10F4010F10F401C
:105050002C550000408004403C80044000900040FB
:105060000080004000100240000101000C80004060
:105070002480004080B500F08DF800F023F800F0A7
:1050800003F800F0A7F8FEE780B50320FFF7D0F99A
:1050900032490860314800684FF47A71484330491A
:1050A00008602F4800682F490968C1F30361491C53
:1050B000B0FBF1F02C4908605FF4E1310520FDF709
:1050C0002FFB01BD2DE9F8432848294988420DD01E
:1050D00000208046B8F5826F08D2254850F8280095
:1050E000224941F8280018F10108F3E71F4800F0B1
:1050F000BFF8204807002048060020480400A01BF5
:1051000080464046B0F10108002804D0307838705D
:10511000761C7F1CF5E71A4881461A480500B5EB56
:10512000090080464046B0F10108002805D0002063
:1051300089F8000019F10109F4E713481349144AEA
:10514000531A98464346B3F10108002B04D00B785C
:105150000370491C401CF5E7BDE8F1833C24FF1FA8
:105160003824FF1F448004404024FF1F0000FF1F1D
:10517000000000001004FF1FA43800003C410000A4
:10518000F80CFF1FB824FF1FA80CFF1F04540000D9
:105190005454000080B500F008F80C4800884FF621
:1051A000FE7108400949088001BDEFF3118072B615
:1051B0004CF22051064A11804DF62811044A118004
:1051C000C0B2002800D162B6704700000020054040
:1051D0000E20054080B51E49672000F05AF81D4991
:1051E000102000F056F800F06BF81B48FFF70CFD9C
:1051F000FFF779FD4FF4167217491848FCF714FBB6
:105200001648FBF709F916490870FBF701FE154926
:105210000870144802782821134800F095F81349C3
:10522000086042F27A1242F24E0110480068FCF720
:10523000B7FE0E4908600D48026800210120FFF703
:10524000B1FA4FF41671044800F0BCF8D0E700BF83
:10525000D9570000E1570000000FFF1F5811FF1F32
:10526000A624FF1FA20CFF1F2824FF1F1804FF1FE6
:1052700010B504004FF4007094FBF0F100FB1140F6
:10528000002803D01E210B48FDF7C6F90A48046028
:1052900010BD38B504000D00074800680749884272
:1052A00003D030210348FDF7B7F9044864B240F851
:1052B000245031BDB455000008ED00E00000FF1F90
:1052C00080B5002201214120FCF7EAFF00220121E4
:1052D0004220FCF7E5FF002201214320FCF7E0FF1C
:1052E000002201214420FCF7DBFF002201212020C5
:1052F000FCF7D6FF124803684FF4FA520021002051
:10530000FFF78AF900234FF4FA5201210020FFF73A
:1053100083F900234FF4FA5202210020FFF77CF9B1
:10532000084803684FF4FA5203210020FFF774F98C
:1053300042F2E403642200210120FFF76DF901BD70
:105340001004FF1F1404FF1F70B504000D001600A9
:1053500019480078372807DB142342F21072002125
:105360000020FFF759F907E01448036842F2107271
:1053700000210020FFF750F90F4800781A2807DABB
:10538000142342F2107203210020FFF745F907E0D1
:105390000B48036842F2107203210020FFF73CF92A
:1053A000721B110061600A2202FB01F2100042F23E
:1053B000E402101A70BD0000A20CFF1F1004FF1FB2
:1053C0001404FF1F38B504000D000C480088ADF828
:1053D00002000B480088ADF8000002220DF1020126
:1053E0000520FDF7B3FA2A0021000520FDF7AEFAEB
:1053F000022269460520FDF7A9FA31BD42190000D5
:10540000B61C0000F0B4114E366834000F4E3668FA
:1054100056F47F060D4F3E600E0616F0706656EA93
:105420000076170517F470073E431F0417F4702722
:105430003E43074F3E6000263500EDB29D4201D24B
:105440006D1CFAE7014E3460F0BC704700F001407B
:1054500044800440433A5C55736572735C6A6961C9
:1054600067655C4465736B746F705CD6C7C4DCB3EE
:10547000B5C8EDBCFE5C6B3630D7EED0C25CD0A1B7
:10548000B3B5315C436869705C7372635C4D4B36D5
:10549000305F6770696F2E6300000000433A5C550F
:1054A000736572735C6A696167655C4465736B748C
:1054B0006F705CD6C7C4DCB3B5C8EDBCFE5C6B36A0
:1054C00030D7EED0C25CD0A1B3B5315C436869700F
:1054D0005C7372635C4D4B36305F53797354696310
:1054E0006B2E6300433A5C55736572735C6A696145
:1054F00067655C4465736B746F705CD6C7C4DCB35E
:10550000B5C8EDBCFE5C6B3630D7EED0C25CD0A126
:10551000B3B5315C436869705C7372635C4D4B3644
:10552000305F756172742E6300000000433A5C5571
:10553000736572735C6A696167655C4465736B74FB
:105540006F705CD6C7C4DCB3B5C8EDBCFE5C6B360F
:1055500030D7EED0C25CD0A1B3B5315C436869707E
:105560005C7372635C4D4B36305F646D612E63001B
:10557000433A5C55736572735C6A696167655C4444
:1055800065736B746F705CD6C7C4DCB3B5C8EDBC13
:10559000FE5C6B3630D7EED0C25CD0A1B3B5315CC7
:1055A000436869705C7372635C4D4B36305F667440
:1055B0006D2E6300433A5C55736572735C6A696172
:1055C00067655C4465736B746F705CD6C7C4DCB38D
:1055D000B5C8EDBCFE5C6B3630D7EED0C25CD0A156
:1055E000B3B5315C436869705C7372635C6D6973F9
:1055F000632E630019E050F8041BCB0744BFA9F1E8
:1056000001035918121F0023042A41F8043BF9D260
:105610005FEA827C0B4604D54FF0000CA1F800C075
:105620009B1CD10744BF0021197050F8042B002A9D
:10563000E1D170470A2A2A2A2A64656661756C746A
:105640005F69737220656E7465726564206F6E2089
:10565000766563746F722025642A2A2A2A2A0A0A28
:10566000257320496E7465727275707400000000B5
:1056700010B5074979441831064C7C44163404E0CF
:105680000A68081D114488470146A142F8D110BD9F
:105690007400000080000000417373657274696FCC
:1056A0006E206661696C656420696E2025732061D7
:1056B00074206C696E652025640A00000A476574D1
:1056C0002049442073756363657373A3AC53454EDF
:1056D000534F5220494420697320307825780000C8
:1056E0000A4F5637373235205265676973746572D1
:1056F00020436F6E6669672053756363657373211A
:1057000000000000F1FEFFFFC0170000F80CFF1FB3
:10571000000000000A436F6E666967205265676982
:1057200073746572204E756D6265722069732025F1
:105730006420000000F00BF8002801D0FFF798FF6C
:105740000020C046C046FFF745FD00F002F80120EA
:10575000704700F001B800000746384600F002F834
:10576000FBE700002021090326311820ABBEF9E732
:105770000ABEAFB8E63A53434342D0B4CAFDBEDDD9
:10578000B4EDCEF3000000000ABEAFB8E63AD0B4E4
:10579000BCC4B4E6C6F730782578CAA7B0DC0000F0
:1057A00038B504460D46284600F006F8A84218BF52
:1057B0000024204632BD00000149FCF740BF00BF75
:1057C000600CFF1F0ABEAFB8E63AB6C1C8A1494493
:1057D000CAA7B0DC0000000080B5FFF74BFA01BD9E
:1057E00080B5FFF770FA01BDC046C046C046C0464E
:1057F000FFF7A0FF00000000000000000000000014
:105800000000000000000000000000000000000098
:10581000FFFFFFFFFFFFFFFF000000000000000090
:105820000000000000000000000000000000000078
:10583000000000000000000000000000FFFFFFFF6C
:10584000FFFF00000000000000000000000000005A
:105850000000000000000000000000000000000048
:105860000000000000000000000000000000000038
:0C5870000000000000000000000000002C
:04000005000057E9B7
:00000001FF
