:10000000F8FF0020110400006327000063270000B0
:1000100063270000632700006327000063270000B8
:1000200063270000632700006327000063270000A8
:100030006327000063270000632700006327000098
:100040006327000063270000632700006327000088
:10040000FFFFFFFFFFFFFFFFFFFFFFFFFEFFFFFFFD
:1004100062B604F0A1FEFEE72DE9F84F04000022C9
:100420000A21DFF8200A01F0A7FA3B250020DFF8B7
:10043000181A08700020DFF8141A08700020DFF87E
:10044000101A08700020DFF80C1A08700020DFF87E
:10045000081A08700220DFF8041A08704E20DFF82E
:10046000001A08703B20DFF8FC1908703B20DFF809
:10047000F81908705020DFF8F41908700020DFF830
:10048000F01908700020DFF8EC1908700020DFF880
:10049000E81908700020DFF8E41908700020DFF880
:1004A000E01908700220DFF8DC1908704E20DFF830
:1004B000D81908705020DFF8D41981F83C000020CA
:1004C000DFF8CC1981F83C000020DFF8C81981F86A
:1004D0003C000220DFF8A01B81F83C000220DFF87E
:1004E000981B81F83D000120DFF88C1B81F83E004D
:1004F0002820DFF8A41981F83C002820DFF898199B
:1005000081F83D002820DFF8901981F83E004E2048
:10051000DFF8801B81F83C004E20DFF8781B81F863
:100520003D004F20DFF86C1B81F83E0000273B2088
:1005300005006DB2142DC0F2AA830020C0B251286C
:1005400029DA6DB2502115FB01F151FA80F1615C9D
:1005500000291ED06DB2502115FB01F151FA80F136
:1005600021444978002914D06DB2502115FB01F1C6
:1005700051FA80F12144897800290AD16DB25021C5
:1005800015FB01F151FA80F12144C978002900D10D
:100590007F1C401CD2E7FFB2072F03DB0120DFF8EE
:1005A000DC1A0870002007000120DFF8E4186DB2A3
:1005B00048550120DFF8DC186DB248556DB2502067
:1005C00015FB00F0DFF8D0186DB22944497850FAD5
:1005D00081F0205C00281AD16DB23B2D16D120008D
:1005E00000F0A9FBDFF8AC0A90F83B00DFF8881AAE
:1005F00091F83B10401A282807DA21003B2001F02F
:100600000BF821003B2001F02BF83EE33FE32100F3
:100610002800C0B200F08FFF6DB2372D14DBDFF879
:10062000740A6DB2405DDFF8501A6DB2495D401A30
:10063000282809DA21002800C0B200F0EDFF2100CF
:100640002800C0B201F00CF8DFF8480A6DB2405D36
:10065000DFF8241A6DB2495D401ADFF830186DB228
:100660004855DFF828086DB2405DDFF820186DB2FC
:1006700029444978884208D2DFF810086DB2405DFD
:10068000DFF8E817097888425AD30120DFF8E0172D
:100690000870DFF8FC076DB228444078002811D0BC
:1006A000DFF8D4096DB2405DDFF8EC196DB2294472
:1006B0004978491E884216DA0120DFF8D4176DB256
:1006C000485510E0DFF8B0096DB2405DDFF8A819B9
:1006D0006DB229444978491E884204DA0120DFF8C6
:1006E000B0176DB24855DFF8AC076DB228444078BA
:1006F000002812D0DFF8A4096DB228444078401CCD
:10070000DFF890196DB2495D884280F2AB8001201C
:10071000DFF880176DB24855A4E0DFF878096DB2B4
:1007200028444078401CDFF86C196DB2495D88425E
:1007300080F298800120DFF85C176DB2485591E097
:100740006DB23B2D00F08E806DB21F2DC0F28A80FD
:10075000DFF840096DB2405D401DDFF838196DB219
:1007600029444978884238DADFF828076DB22844EE
:100770004078002831D16DB2502015FB00F0DFF831
:1007800014196DB2495D4018204410F8500C00282F
:1007900016D16DB2502015FB00F0DFF8F8186DB2DD
:1007A000495D4018204410F8A00C002808D1DFF85B
:1007B0009C060078002810D1DFF8900605700CE048
:1007C000DFF890060078002802D1DFF8880605706F
:1007D00021002800C0B200F043FFDFF89C086DB292
:1007E00028444078401DDFF890186DB2495D88427A
:1007F00038DADFF89C066DB228444078002831D101
:100800006DB2502015FB00F0DFF86C186DB2495D39
:100810004018204410F8500C002816D16DB250201A
:1008200015FB00F0DFF850186DB2495D4018204408
:1008300010F8A00C002808D1DFF80C06007800287A
:1008400010D1DFF8040605700CE0DFF8040600782C
:10085000002802D1DFF8F805057021002800C0B299
:1008600000F0DAFEDFF828066DB2405D002800F0E7
:100870008480DFF800060078002802D1DFF8F40554
:1008800005706DB2322D20DBDFF814080068060019
:100890003000002101F0B2F801D2002006006DB254
:1008A000B5F13B0001F0BCF8310001F0D3F883460C
:1008B000DFF8C40790F83B0001F0BCF8594601F09E
:1008C00035F901F075F980464CE0DFF8A8050078AD
:1008D000322804DBDFF8C807006806001DE0DFF8F7
:1008E0009807DFF89015097808448079DFF88817B1
:1008F000DFF88025127811444978401A01F07AF91E
:100900000022DFF8A03701F08DF90022DFF89837D8
:1009100001F05AFA01F084FB06003000002101F0DA
:100920006DF801D2002006006DB2DFF848050078AE
:10093000281A401E01F074F8310001F08BF883464C
:10094000DFF83407DFF82C1509780844407801F007
:1009500071F8594601F0EAF801F02AF98046DFF80B
:10096000400706604E2202214FFA88F8404601F007
:100970009FFBDFF824176DB24855DFF818056DB2FC
:10098000405D002800F08480DFF8EC040078002847
:1009900002D1DFF8E40405706DB2322D20DBDFF800
:1009A0000C07006806003000002101F08DFB01D229
:1009B000002006006DB2B5F13B0001F031F83100C6
:1009C00001F048F88346DFF8CC0690F83B0001F0D0
:1009D00031F8594601F0AAF801F0EAF880464CE0F7
:1009E000DFF894040078322804DBDFF8C0060068E2
:1009F00006001DE0DFF89C06DFF87C140978084447
:100A00008079DFF89016DFF8702412781144497865
:100A1000401A01F0EFF80022DFF8883601F002F901
:100A20000022DFF8843601F0CFF901F0F9FA060070
:100A30003000002101F048FB01D2002006006DB219
:100A4000DFF834040078281A401E00F0E9FF310076
:100A500001F000F88346DFF83C06DFF81C14097843
:100A60000844407800F0E6FF594601F05FF801F0D5
:100A70009FF88046DFF8340606604E2202214FFAC6
:100A800088F8404601F014FBDFF810166DB24855A7
:100A9000DFF8FC036DB2405D002813D0DFF8F403EB
:100AA0006DB2405D00280DD0DFF8F0056DB2405DFD
:100AB000DFF8E4156DB2495D401ADFF8D0136DB26E
:100AC0004855B6E0DFF8C8036DB2405D00280DD090
:100AD000DFF8C0056DB2405DDFF8BC156DB2495D51
:100AE000401ADFF8A8136DB2485520E0DFF8A403E0
:100AF0006DB2405D00280DD0DFF8A0056DB2405DFD
:100B0000DFF874156DB2495D401ADFF880136DB2DD
:100B100048550CE0DFF87C056DB2405DDFF85815F4
:100B20006DB2495D401ADFF864136DB24855DFF8C5
:100B30005C036DB2405DDFF834130978884206D259
:100B4000DFF848036DB2405DDFF820130870DFF86E
:100B500034030078DFF820156DB2495D884206D273
:100B6000DFF814056DB2405DDFF818130870DFF888
:100B700024056DB2405DDFF810130978884206D273
:100B8000DFF810056DB2405DDFF8FC120870DFF889
:100B900000036DB2405D002822D1DFF8F4026DB28F
:100BA0002844407800281BD0DFF8D00200780028C5
:100BB00016D10120DFF8C4120870DFF8A802057012
:100BC000DFF898020078DFF8B0146DB2495D884212
:100BD00006D2DFF8A4046DB2405DDFF88012087021
:100BE000DFF8B0026DB2405D002822D1DFF8A40228
:100BF0006DB22844407800281BD0DFF884020078CA
:100C0000002816D10120DFF878120870DFF85802AA
:100C10000570DFF880046DB2405DDFF8441209789A
:100C2000884206D2DFF86C046DB2405DDFF8301206
:100C30000870DFF85C026DB2405D002805D0DFF877
:100C400058046DB2405D824604E0DFF82C046DB2BA
:100C5000405D8246DFF83C026DB2405D002805D061
:100C6000DFF838046DB2405D814604E0DFF824040B
:100C70006DB2405D81465FFA89F959FA8AF0022126
:100C800090FBF1F084496DB248556D1E51E47048F7
:100C90000078002807D06F480078002803D0012092
:100CA000DFF8D81308702800C0B28DF80000724831
:100CB0000078002819D06F480078002815D06248C5
:100CC0000078002811D16148007800280DD1220059
:100CD000624801786348007800F08CFA220060488E
:100CE00001786148007800F059FB21009DF8000070
:100CF00000F0DEF958480078032814DADFF88C0693
:100D00000078401CDFF8841608700121002001F0F3
:100D10000AFADFF878060078322808DB0020DFF8CE
:100D20007016087003E00020DFF8601608704A486B
:100D30000078BDE8F28F70B504003B25DFF854065B
:100D40000078002814D0DFF84C03EDB200EB050367
:100D5000DFF82403EDB200EB0502EDB2502000FBFA
:100D600005F004EB00012800C0B200F029FD54E0BA
:100D7000DFF824060078002814D0DFF81803EDB25D
:100D800000EB0503DFF8F002EDB200EB0502EDB277
:100D9000502000FB05F004EB00012800C0B200F079
:100DA0004FFD3AE0EDB2502000FB05F0204400F08A
:100DB0008DFC0600EDB2502000FB05F0204400F051
:100DC000C0FCF6B2864214D3DFF8C802EDB200EBE5
:100DD0000503DFF8A402EDB200EB0502EDB25020EE
:100DE00000FB05F004EB00012800C0B200F0E8FCB5
:100DF00013E0DFF8A002EDB200EB0503DFF87802A4
:100E0000EDB200EB0502EDB2502000FB05F004EB63
:100E100000012800C0B200F013FD1D48EDB2405D96
:100E2000002803D002209449EDB248551948EDB28C
:100E3000405D002804D04E20DFF85812EDB248552E
:100E400070BD00001C04FF1FAC24FF1FAD24FF1F5A
:100E5000AE24FF1FAF24FF1FA624FF1FA224FF1FE5
:100E6000A324FF1FA424FF1FA524FF1F9D24FF1FF1
:100E7000AB24FF1F9E24FF1F9F24FF1FA024FF1FE2
:100E8000A124FF1FA724FF1FA824FF1F380EFF1F48
:100E9000780EFF1FB80EFF1F380DFF1F2DE9F84316
:100EA00000240025DFF8E4040078002809D0DFF8EA
:100EB000F40790F9000007000220DFF858170870C7
:100EC000AEE0DFF8E40700782130DFF8E0170978BA
:100ED00088420BDADFF8D0070078DFF8D0170978FE
:100EE0000818022190FBF1F0070028E03B200600E3
:100EF00076B2DFF8BC070078D0F13C00864217DB01
:100F0000DFF8B00776B2805DDFF8AC1776B27242D8
:100F1000114491F83B1001FB0044DFF89C0776B2C6
:100F20007142084490F83B0055FA80F5761EDFE7E1
:100F30004E22022194FBF5F001F0BAF80700DFF829
:100F40007C070078002812D0DFF8740700780028AA
:100F50000DD0DFF86007DFF8641709784056070006
:100F6000DFF858070078282818DAFF1C16E0DFF8A9
:100F700054070078002811D0DFF84C0700780028CB
:100F80000CD0DFF83007DFF83C170978405607002F
:100F9000DFF830070078282800DA7F1F4E22022170
:100FA0007FB2380001F084F80700DFF8F806077018
:100FB0007FB2282F08DA0120DFF8D813087000204C
:100FC000DFF8D413087013E07FB2292F08DB01206B
:100FD000DFF8C41308700020DFF8B813087007E0CA
:100FE0000020DFF8B01308700020DFF8AC130870A1
:100FF000DFF8BC060078192806DBDFF8B806807F2A
:10100000DFF8101608700BE0DFF8A806DFF8A0166E
:1010100009784942084490F83C00DFF8F815087058
:101020002821DFF8F005007800F02AF840B200F03F
:10103000E1FDDFF82426DFF8243600F0F3FD8046DA
:10104000894628213800C0B200F01AF800F0D2FD1D
:10105000DFF80426DFF8483600F0E4FD42464B4650
:1010600001F09AF801F00CF9DFF8D0170870380099
:10107000C0B2BDE8F2830000F80CFF1FB024FF1FD0
:1010800002008B1A180040B2002801D540B240423D
:1010900040B27047780DFF1FB80DFF1FF80DFF1FFE
:1010A000F80EFF1F0000F03F00001440FC0EFF1F71
:1010B0002DE9F84304000D003B20814620004946FD
:1010C000C0B2C9B2884280F08D80DFF88C085FFA28
:1010D00089F910F80900002811D0DFF8EC05007834
:1010E000002804D1DFF8D4050078002807D0DFF805
:1010F0006C085FFA89F910F80900070006E0DFF8CC
:1011000060085FFA89F910F809000700DFF8540851
:101110005FFA89F910F80900002811D0DFF8A0055E
:101120000078002804D1DFF89C050078002807D05B
:10113000DFF834085FFA89F910F80900804606E004
:10114000DFF828085FFA89F910F8090080465FFA8D
:1011500088F858FA87F0022190FBF1F006004E2241
:101160000221F6B2300000F0A3FFDFF848155FFA65
:1011700089F901F809005FFA89F95020FFB200FBF4
:1011800009702844002181705FFA89F950205FFAC4
:1011900088F800FB09802844002100F8021C5FFA4F
:1011A00089F95020DFF80C155FFA89F911F8091058
:1011B00000FB091000212954DFF8F8045FFA89F9CF
:1011C00010F80900032807DBDFF8E8045FFA89F963
:1011D00010F809004E2802DBB9F1010902E0B9F16B
:1011E00001096BE7D9F13C00401EDFF8C414087018
:1011F000BDE8F1832DE9F04F83B004008B469146A2
:101200003B20050020002900C0B2C9B2884280F00E
:10121000BA80DFF84407EDB2405D002800F0B180ED
:10122000EDB2372D52DB2700DFF83407E4B2005D62
:10123000DFF82C17E4B2214411F8051C401A00F025
:10124000D9FC0022DFF80C3700F0ECFC0022DFF8BC
:10125000203700F0B9FD00F0E3FE80464046002153
:1012600000F0CCFB01D200208046781C0600F6B2CC
:101270003C2E80F28580F6B2FFB2F01B00F0D0FB6E
:10128000414600F0E7FB0090DFF8D406FFB2C05DF6
:1012900000F0D0FB009900F049FC00F089FC824688
:1012A0004E220221504600F003FFDFF8B016F6B2DE
:1012B0008855F6B25020DFF8A416F6B2895D00FB1F
:1012C0000610484400218170761CD0E7681C070096
:1012D000DFF88C06FFB2C05D5FFA8BFBB0EB0B0052
:1012E00000F088FC0022DFF86C3600F09BFCCDE9B2
:1012F0000001FFB2E4B2381B00F07CFC02000B00DE
:10130000DDE9000100F060FD00F08AFE8046404605
:10131000002100F073FB01D2002080463E00200037
:101320003100C0B2C9B288422AD2F6B2FFB2F01B75
:1013300000F076FB414600F08DFB0090DFF82006C0
:10134000FFB2C05D00F076FB009900F0EFFB00F00B
:101350002FFC82464E220221504600F0A9FEDFF803
:10136000FC15F6B28855F6B25020DFF8F015F6B24B
:10137000895D00FB0610484400218170761ECEE78F
:1013800001E06D1E3EE7BDE8F78F0000B324FF1FAC
:101390009C24FF1FA924FF1FAA24FF1F2DE9F04F43
:1013A00083B004008B4691463B20050020002900B5
:1013B000C0B2C9B2884280F0BC80DFF8A805EDB2A7
:1013C000405D002800F0B380EDB2372D53DB2700DD
:1013D000DFF89805E4B2005DDFF89015E4B221442F
:1013E00011F8051C401A00F005FC0022DFF86435F6
:1013F00000F018FC0022DFF8783500F0E5FC00F082
:101400000FFE80464046002100F05EFE01D2002023
:101410008046781C0600F6B23C2E80F28780F6B239
:10142000FFB2F01B00F0FCFA414600F013FB009005
:10143000DFF83805FFB2C05D00F0FCFA009900F05B
:1014400075FB00F0B5FB82464E220221504600F0AB
:101450002FFEDFF81415F6B28855F6B25020DFF8EB
:101460000815F6B2895D00FB06104844002100F81B
:10147000021C761CCFE7681C0700DFF8F004FFB2FF
:10148000C05D5FFA8BFBB0EB0B0000F0B3FB0022FA
:10149000DFF8C03400F0C6FBCDE90001FFB2E4B2D2
:1014A000381B00F0A7FB02000B00DDE9000100F093
:1014B0008BFC00F0B5FD80464046002100F004FEA4
:1014C00001D2002080463E0020003100C0B2C9B2E7
:1014D00088422BD2F6B2FFB2F01B00F0A1FA4146CF
:1014E00000F0B8FA0090DFF88404FFB2C05D00F0AD
:1014F000A1FA009900F01AFB00F05AFB82464E2236
:101500000221504600F0D4FDDFF85C14F6B2885595
:10151000F6B25020DFF85014F6B2895D00FB0610D9
:101520004844002100F8021C761ECDE701E06D1E44
:101530003CE7BDE8F78F10B45E4BC0B203445B7864
:101540001A00D2B2022A1DDBC0B25023D2B203FB72
:101550000023CB5C002B13D1C0B25023D2B203FBCB
:1015600000230B4413F8013C002B09D10023DFF8C2
:10157000E843C0B22354DFF8E833C0B21A5401E0A4
:10158000521EDEE74B4BC0B203445B781A00D2B266
:101590004F2A1CDAC0B25023D2B203FB0023CB5C2B
:1015A000002B12D1C0B25023D2B203FB00230B4454
:1015B0005B78002B09D10023DFF8A843C0B2235485
:1015C000DFF8A833C0B21A5401E0521CDFE7DFF89D
:1015D0008833C0B21B5C002B09D00223DFF88043A4
:1015E000C0B223540223DFF87443C0B22354DFF89F
:1015F0007433C0B21B5C002B09D04E23DFF86C4360
:10160000C0B223544E23DFF86043C0B2235410BC51
:1016100070470000B124FF1F10B4DFF84433C0B29C
:1016200003445B781A00D2B24E2A13DAC0B25023B8
:10163000D2B203FB0023CB5C002B09D00023DFF8E0
:101640001843C0B22354DFF81833C0B21A5401E073
:10165000521CE8E710BC70479A9999999999E93F0B
:1016600010B4DFF80833C0B203445B781A00D2B27A
:10167000032A13DBC0B25023D2B203FB0023CB5C9E
:10168000002B09D00023DFF8DC42C0B22354DFF87E
:10169000DC32C0B21A5401E0521EE8E710BC7047B9
:1016A0009999C93FA30CFF1FA724FF1FA824FF1F60
:1016B000A624FF1F380DFF1F1C04FF1FAC24FF1FB3
:1016C0009E24FF1FAD24FF1F9F24FF1F30B4010085
:1016D000012300204F2400252A0052B24E2A2CDA82
:1016E0005BB2002B13D052B28D5C002D23D052B2CE
:1016F00001EB02056D78002D1DD052B201EB020501
:10170000AD78002D17D01500EDB2280013E052B2CD
:101710008D5C002D0FD152B201EB02056D78002DCA
:1017200009D152B201EB0205AD78002D03D11500AD
:10173000EDB22C0001E0521CCFE7201AC0B230BC41
:10174000704730B40100012300204F244F252A00A8
:1017500052B2022A30DB5BB2002B15D052B28D5C44
:10176000002D27D052B201EB020515F8015C002DC7
:1017700020D052B201EB020515F8025C002D19D001
:101780001500EDB22C0015E052B28D5C002D11D188
:1017900052B201EB020515F8015C002D0AD152B2DC
:1017A00001EB020515F8025C002D03D11500EDB226
:1017B000280001E0521ECBE7201AC0B230BC7047AF
:1017C000F0B401250026340064B24E2C34DA6DB238
:1017D000002D18D064B20E5D002E2BD064B201EB48
:1017E00004067678002E25D064B201EB0406B678A4
:1017F000002E1FD0002635000026DFF85C7187F828
:101800003B60147016E064B20E5D002E12D164B21B
:1018100001EB04067678002E0CD164B201EB0406CD
:10182000B678002E06D10026DFF8387187F83B60C5
:101830001C7001E0641CC7E7F0BC7047B224FF1FB6
:10184000F0B401254F26340064B2022C38DB6DB2AF
:10185000002D1AD064B20E5D002E2FD064B201EBC1
:10186000040616F8016C002E28D064B201EB0406C1
:1018700016F8026C002E21D0002635000026DFF875
:10188000E47087F83B601C7018E064B20E5D002EB7
:1018900014D164B201EB040616F8016C002E0DD1D0
:1018A00064B201EB040616F8026C002E06D1002685
:1018B000DFF8A47087F83B60147001E0641EC3E792
:1018C000F0BC704730B41400621E002C40D00C787D
:1018D0002300491CDFF89C40DBB2DD11645D04701D
:1018E000401CDFF89040C3F38015EDB2645D0470D6
:1018F000401CDFF88040C3F34015EDB2645D047016
:10190000401CDFF87040C3F30015EDB2645D047055
:10191000401CDFF86040C3F3C005EDB2645D0470A5
:10192000401CDFF85040C3F38005EDB2645D0470E5
:10193000401C104CC3F34005EDB2645D0470401CC4
:101940000C4CDBB213F00105645D0470401CBAE777
:1019500030BC70470000F03F780EFF1FB80DFF1F2E
:10196000F80CFF1FB80EFF1FF80DFF1F780DFF1FAB
:1019700000001440A00CFF1F30B4D2B2012A1CD1C9
:101980000C0064B223005BB23C2B07DA5BB2C9B235
:101990005C1A045D5BB2C4545B1CF4E700242300B2
:1019A0001C0064B20D00EDB224B22DB2AC4204DAD8
:1019B00001245BB2C4545B1CF2E7D2B2002A1AD1F4
:1019C000002423005BB2C9B2D1F13C04A34207DA80
:1019D000C9B241FA83F4045D5BB2C4545B1CF1E705
:1019E000D1F13C0423005BB23C2B04DA01245BB24E
:1019F000C4545B1CF7E730BC704700004FF0807C9C
:101A00001CEB400F94BF1CEB410F05E040EA010CBA
:101A10005FEA4C0C01D28142704718BF8842704780
:101A2000002840F10980F446404200F005F850F0EB
:101A300000406047002800BF0AD0B0FA80F188401B
:101A4000D1F19D01C905020672F1004241EB10205F
:101A500070470000FF2212EAD05C1DBF12EAD1538A
:101A6000944593422BE09C44D30780EA01021A403C
:101A700043EA002043EA0121A1FB0030410038BFC6
:101A800040007CF17F010BDBFE294ADA5B0842EA69
:101A9000C15153EA006373F1004C51EB10207047C1
:101AA000D1F1080CDCF120012FDB5B0810FA01F109
:101AB0000B4373F1004120FA0CF0504170479445FC
:101AC0001CBF02EAD153934280EA010202F00042B5
:101AD0001DD0400019D0490017D05BB9634514D020
:101AE0000902B1FA81F39940BCEB030CC00140F04C
:101AF0000040C1E70002B0FA80FC10FA0CF0B3EB32
:101B00000C0CC90141F00041B6E7100070474000DD
:101B10000AD0490008D010F1807F94BF11F1807F76
:101B200002E042F0FF407047D043704790EA010F57
:101B300044BF81F0004100F0CFBB00BF421A3CBF60
:101B4000801A89184FF0004CC0F3C752FF2A24D0E6
:101B5000C1F3C75313B3D21AD2F1190327DD4CEAEC
:101B600001214CFA03F321EA0303D140C20D4CEAF0
:101B70000020401834BF20EA0C004CEA5000D20587
:101B800053EA006373EB0C0C52EB1020420012F18D
:101B9000807F38BF7047C00DC0057047490212BF33
:101BA0009A4200EB5120F8E7D2F11703D9D57047DC
:101BB0004100090E7F3915D4D1F11F0114D4400022
:101BC00007D2C00140F00040C84048BF6FF000405D
:101BD0007047C00140F00040C8404CBF4FF000408B
:101BE000404270470020704700424FF0004058BF0D
:101BF000C0437047010040F10980F446404200F0C4
:101C000005F851F000416047010000BF09D0B0FA6B
:101C100080F18840C91CC1F58461090501EBD02120
:101C200040057047B0B581EA030C0CF0004C40F25F
:101C3000FF7515EA11541DBF15EA1357AC42AF42A8
:101C400039E0E41923EA455343F48013C90241F013
:101C5000004141EA505EC7021100A7FB02020028C2
:101C60004FF00000EEFB01204FF00001E3FB0721E5
:101C700018BF42F00102401800214941E3FB0E0168
:101C8000A4F580640F0302D252004041494154F14F
:101C900001046CDD470872F1004250F1000051EB85
:101CA0000451A1F580115CBF41EA0C01B0BD4CEAC2
:101CB00005510020B0BD05EA1357AC4214BFAF4236
:101CC00041E050EA410E1CBF52EA430E02E0614679
:101CD0000020B0BD24423C441BD15FEA070EF6D081
:101CE000090302BF01460020AEF1140EB1FA81F7DC
:101CF000AEEB070401FA07FE0C37C7F1200100FA2A
:101D000007F7C8404EEA000E23EA455343F4801318
:101D1000A2E733F00043B3FA83F704BFB2FA82FEBE
:101D200077440B3FE41BB7F1200E2FBF02FA0EF3EE
:101D3000BB40C7F1200E22FA0EFE38BF43EA0E0365
:101D4000BA40641C82E750EA410E14BF52EA430EC7
:101D50006FF000014FF4001717EB430F8ABF1946CD
:101D600017EB410FB5E74CEA05510020B0BDD4F1A7
:101D70000104B4F120070FDAC4F12007520828BF8C
:101D800042F0010210FA07F501FA07F7E1BF2A4312
:101D9000E0403843E1400FE0352C98DCC7F12004E7
:101DA00052EA400220FA07F218BF42F0010231FA6B
:101DB00007F0A1400A43002172F1004250F10000F7
:101DC00051EB0C01B0BD00002DE9F04140F2FF7570
:101DD00081EA030C0CF0004C15EA11541DBF15EA02
:101DE0001357AC42AF42E9E0BC41C1F31301C3F366
:101DF0001303801A994143F4801304D2641E4000F7
:101E0000494180185941C90241EA5051B1FBF3F6EA
:101E100003FB1611A2FB0675D7EBC020A94102D225
:101E2000761E80185941C90241EA5051B1FBF3FEB8
:101E300003FB1E11A2FB0E75D7EBC020A94103D2F4
:101E4000AEF1010E80185941890241EA90517605A0
:101E500046EA8E2EB1FBF3F603FB1611A2FB0675C4
:101E6000D7EB8020A94102D2761E80185941C902C1
:101E700041EA50514EEA060EB1FBF3F603FB161190
:101E8000A2FB0675D7EBC020A94102D2761E8018AE
:101E90005941C90241EA5051B1FBF3F703FB171155
:101EA000A2FB0735D3EBC020A94167F100070CBFA7
:101EB000004247F0010766F3D5274FEA1E31B80804
:101EC00014F5806414DDBD0775F1004250EB0E502F
:101ED00051EB045111F5801F5CBF41EA0C01BDE8D4
:101EE000F0814CF07F6141F0E0410020BDE8F081DD
:101EF000BD076D0840EA0E5041F48011D4F1010491
:101F0000B4F120060ADAC4F120060200E04001FA2A
:101F100006F3E1401843B24015430EE0342C14DCC4
:101F2000C6F1200445EA40056D0820FA06F2154383
:101F300021FA06F0A1400D43002175F1004250F155
:101F4000000051EB0C01BDE8F08100205FEA0C01BC
:101F5000BDE8F081CFB992185B41B3FA83F704BFB3
:101F6000B2FA82F6BF190B3FB7F120062FBF02FA73
:101F700006F3BB40C7F1200622FA06F638BF33430A
:101F8000BA401CB1E419641E2FE77F4231F00041D2
:101F9000B1FA81F404BFB0FA80F6A4190B3CB4F195
:101FA00020062FBF00FA06F1A140C4F1200620FA56
:101FB00006F638BF3143A0403C1B16E7AC421ABFBF
:101FC00005EA1357AF4214E050EA41061CBF52EA3B
:101FD0004306BFE750EA4107304661461CBF41EA6D
:101FE0000551BDE8F08152EA430C08BFC143BDE88A
:101FF000F08100204FF4001616EB410F98BF16EB4E
:10200000430F08BF16EB410F24BFC14305E016EB99
:10201000430F0CBF61464CEA0551BDE8F08100005A
:102020004FEAF17CBCF1E04C2CBFBCF5001F11E085
:102030005FEA4C0C34BFBCF17F5F2EE05FEA9C0C82
:102040004FEA0C1C4FEA3C0CC10071F100414CEB13
:1020500050707047C90241EA5051C00218BF41F0A8
:10206000010141F000414FEA6C50C0F10900212804
:1020700010D240EACC7CCCF1200C11FA0CF070F1BB
:102080000040CCF1200C21FA0CF00CF0004C40EB9D
:102090000C0070474FEACC707047490011F5001FE3
:1020A00004D84FEACC10FF30C0057047C8177047FE
:1020B0000300934201DB100004E0994201DB0800B9
:1020C00000E01800704700004FF0807C1CEB400FD0
:1020D00094BF1CEB410F05E040EA010C5FEA4C0C99
:1020E00001D28842704718BF8142704710B5040082
:1020F00064B2042C07DA01220121264864B2005D93
:1021000000F056F90EE0042004002000441E40B206
:10211000002807D0012201211E4864B2005D00F0B2
:1021200047F9F2E710BD38B504000D0064B2042C85
:1021300007DA2900C9B2174864B2005D00F08FF9D0
:102140000EE0042004002000441E40B2002807D006
:102150002900C9B20F4864B2005D00F080F9F2E7CF
:1021600031BD10B5040064B2042C05DA094864B22C
:10217000005D00F09DF90CE0042004002000441EE6
:1021800040B2002805D0034864B2005D00F090F929
:10219000F4E710BDF80BFF1FF0B44FF0004591EAD3
:1021A000030C44BF6B4000F0ADB900BF841A71EB63
:1021B000030603D2001BB141121973414FF4001CF6
:1021C0001CEB410F34BF7CEB430443E00C0DA4EB4C
:1021D0001356352E50DC45EAC323DB0A45EAC121FC
:1021E000C912B6F120050DDD63FA05F6EB4086EA6B
:1021F0000305124218BF45F00105C01851F1000156
:102200000CD213E062FA06F5F2405540F3415A4011
:10221000B340F3405A408018594107D349085FEA58
:1022200030005FEA350528BF45F0010501F5801152
:10223000420875F1004250F1000041EB0451F0BC3E
:102240004FF4001C1CEB410F38BF70470020090DF4
:10225000090570471CEB410F10D252EA43060BD020
:10226000BCEB410F05D80C0DAB43661E342EB5DD1B
:1022700002E0AB4380185941F0BC7047F0BC704796
:10228000F446400D40EAC120490006D200F014F89F
:10229000004248BF6FF00040604700F00DF84FF07B
:1022A000004188428CBF084640426047400D40EAEA
:1022B000C120490080F00D8040F00040490DA1F59B
:1022C0008061491C05D4D1F11F0154BFC840C0171B
:1022D00070474FF000007047431A4FF000423EBF76
:1022E0005340C01AC91800BFD3095FEAD05C13EB92
:1022F000400F34BFB3EB410F40E07CEBD1530CD324
:1023000042EA012122D8D1EB402009D3400A28BF5C
:102310005FEA500140EBCC507047401A15D04002A4
:10232000B0FA80F2521C9040400A4FEA3C23B3EBD3
:10233000026384BF00EB730007E040F400001A164C
:10234000DB07C2F10102D04018437047182BFCDCB8
:1023500031FA03F202FA03F3591A38BF42F00102CC
:10236000D2EB40203CBF4000ACF1010C5FEACC5CFA
:10237000C20572F100414CEB5020704713EB400F47
:102380000FD24B0009D0ACEBD153022B03DB490237
:10239000172BDDDD70479143401A4300D5D1002053
:1023A000704713EB410FD0D36FF00000704700006F
:1023B00070B504000D0016004FF480712000C0B20B
:1023C00000F056F96DB2002D11D14748E4B2611109
:1023D00050F821004449E4B2621151F822104969D1
:1023E000012214F01F039A409143416136E03E48B8
:1023F000E4B2611150F821003B49E4B2621151F896
:1024000022104969012214F01F039A4011434161CF
:10241000F6B2002E11D13448E4B2611150F8210017
:102420000068012114F01F02914088432E49E4B254
:10243000621151F82210086010E02B48E4B26111DB
:1024400050F821000068012114F01F029140084358
:102450002549E4B2621151F82210086070BD10B431
:10246000C9B2002911D1204AC0B2431152F8232029
:102470001268012310F01F04A3409A431A4BC0B204
:10248000441153F824301A6010E0174AC0B24311C7
:1024900052F823201268012310F01F04A3401A43AE
:1024A000114BC0B2441153F824301A6010BC70476D
:1024B00010B504000C48E4B2611150F821004069E5
:1024C00014F01F01C840C00703D47B21074800F067
:1024D0002BF90548E4B2611150F82100012114F0F4
:1024E0001F029140C16010BD700BFF1F54560000C9
:1024F000F0B44FF0004591EA030F44BF6B40FFF783
:1025000055BE00BF841A71EB030604D26E40001B57
:10251000B141121973414FF4001C1CEB410F34BF41
:102520007CEB430684E00C0DA4EB1356362E7DDCC9
:10253000012E43DC45EAC32343EA525312BFD202C1
:1025400092025B08240545EAC12141EA5051D2EBD1
:10255000C020994125D407D1B0FA80F610FA06F1CF
:1025600064D00020203608E0B1FA81F6B140C6F10F
:10257000200220FA02F21143B0404FEAF474B4EBA7
:10258000465434F001064FEA74040AD8D6F5001612
:10259000760D04F00044F04061FA06F25040F1403C
:1025A0004840C00A40EA415021F0004128BF5FEA9C
:1025B000500550F1000044EBD12137E045EAC32338
:1025C000DB0A45EAC121C90AB6F120050EDD42EA5F
:1025D0000242120CC5F1200603FA06F6EB4042EA6D
:1025E00006056D42984161F100010DE062FA06F5C1
:1025F000F240554063FA06FC82EA0C02F3405A406E
:102600006D42904161EB030111F4801F05D1641EFE
:10261000620502D06D004041494121F48011430818
:1026200075F1004350F1000041EB0451F0BC7047DC
:102630001CEB410F15D223F0004352EA43060BD0A6
:102640004FEA4C0CBCEB410F04D80C0D661E342E27
:10265000B7DDEBE7801A994150EA410608BF002137
:10266000E4E708BF1CEB430F28BF6FF00001DDE774
:1026700010B42B4A13684FF400740200D2B252090E
:1026800014FA02F21A43264B1A60264AC0B24311CA
:1026900052F82320012310F01F04A340C2F8A030F9
:1026A000204AC0B2431152F82320C0B210F01F03D9
:1026B00042F8231010BC704710B4194A13684FF445
:1026C00000740200D2B2520914FA02F21A43144BF7
:1026D0001A60144AC0B2431152F82320012310F0AB
:1026E0001F04A340C2F8A03031F4E0610D4AC0B22B
:1026F000431152F82320C0B210F01F0352F82320D8
:1027000012F4E0621143074AC0B2431152F8232089
:10271000C0B210F01F0342F8231010BC7047000035
:1027200038800440CC0BFF1F38B504000D0000209A
:10273000FFF7DCFC2A002100174800F035F80020E4
:10274000FFF70FFD4FF47A7000F05BF8F2E738B551
:1027500004000D00210049B2052000F074F92000AA
:1027600032BD10B50D4804680120FFF7BFFC012001
:10277000FFF7F7FC0A48E4B20F2101FB04F100EB7C
:102780000102E4B22100074800F00EF84FF47A701D
:1027900000F037F8EBE700009858000004ED00E087
:1027A0005804FF1F345800000EB400B582B003A9CE
:1027B000009102466B460121034878440A3000F03C
:1027C0005BF906BC5DF810FBD931000010B50400C0
:1027D000002C15D0B4F1807F03D329210F48FFF7D7
:1027E000A3FF00200E4908600E48046000200E4937
:1027F000086005200A49086009480068C003FBD545
:1028000010BD10B504002000441E002804D0074865
:102810000068FFF7DBFFF6E710BD00009C560000E4
:1028200010E000E014E000E018E000E03824FF1FB2
:102830002DE9F84304000D0064B2002C08D0022CEE
:102840002CD018D3042C4FD03BD3052C5FD071E093
:10285000DFF80C02006850F48060DFF804120860B2
:102860004FF440716620FFF703FF4FF4407167207B
:10287000FFF7FEFE5EE0DFF8E801006850F400605C
:10288000DFF8DC1108604FF440714320FFF7F0FEE1
:102890004FF440714420FFF7EBFE4BE0DFF8C0013E
:1028A000006850F48050DFF8B81108604FF44071B0
:1028B0006320FFF7DDFE4FF440716220FFF7D8FE82
:1028C00038E0DFF89C01006850F40050DFF8901108
:1028D00008604FF440715020FFF7CAFE4FF440717A
:1028E0005120FFF7C5FE25E0DFF87801006850F4BD
:1028F0008060DFF8701108604FF440714E20FFF7E0
:10290000B7FE4FF440714F20FFF7B2FE12E0DFF840
:102910005401006850F40060DFF8481108604FF47B
:1029200040718920FFF7A4FE4FF440718820FFF723
:102930009FFEFFE7DFF8300164B250F82400C07852
:1029400010F0F300DFF8201164B251F82410C870C1
:10295000DFF8140164B250F824008078DFF8081121
:1029600064B251F82410887064B2002C02D064B2B2
:10297000012C07D1DFF8F40000684FF47A71484366
:10298000814606E0DFF8E80000684FF47A714843BA
:1029900081462801B9FBF0F00600B6B2B6F5005F3B
:1029A00002DB41F6FF700600B9FBF5F0B6B2B0EB02
:1029B00006100700BFB2202F04DB40F203112D48A0
:1029C000FFF7B2FE284864B250F82400007810F0F7
:1029D000E0008046C6F3042050EA0800224964B2B1
:1029E00051F824100870204864B250F82400467052
:1029F0001D4864B250F82400807A10F0E000804650
:102A000017F01F0050EA0800174964B251F824106B
:102A10008872154864B250F82400007C50F0880099
:102A2000114964B251F8241008740F4864B250F888
:102A30002400C07850F00C000B4964B251F8241007
:102A4000C870BDE8F183084A40B252F820201279DC
:102A50001206F8D5044A40B252F82020D1717047CE
:102A60003480044028800440E00BFF1F3824FF1FFF
:102A70004024FF1FE45600002DE9F04FA1B082462C
:102A8000002016461D4602910B900DF144086FF090
:102A900000490AE016F8011B0298D047002802906E
:102AA00000F0AF820B98401C0B903078010001D1F0
:102AB0000B98A8E22528EDD10020059006900790FC
:102AC000089009900A9001E040F0010016F8011FFB
:102AD0002029F9D023290DD02B2904D02D2906D067
:102AE00030290AD00CE040F0020080B2EEE740F05E
:102AF0000400FAE740F00800F7E740F01000F4E7C0
:102B00002A290ED12968296051F8042B2960002A4E
:102B10000D9204D5514240F004000D9180B2761C14
:102B200011E000210D9109E00D99494505D001EB17
:102B3000810302EB430130390D91761C3278A2F10A
:102B400030010A29F0D331782E2903D04FF0FF311C
:102B50000C911DE016F8011F2A2907D12968296068
:102B6000761C51F8042B29600C9211E000210C9185
:102B700009E00C99494505D001EB810302EB4301C3
:102B800030390C91761C3278A2F130010A29F0D349
:102B9000ADF838000FF6D820317800F077FD08B195
:102BA00016F8010B8DF83A009DF83A00682802BF2C
:102BB00031786829622005D06C2804BF30786C28F1
:102BC00003D171208DF83A00761C11A8049016F8F4
:102BD000017BB7F1250024D02038022840F2C380C1
:102BE000133800F0E8800B3800F05681401E00F0EA
:102BF0002C81401E022840F2B680001F00F0258183
:102C0000401F00F08180401E00F0D580401E24D07F
:102C1000C01E0BD0801E00F0CE80C01E00F0CB8006
:102C200044E125208DF84400012049E1286828600E
:102C300050F8044B286003940C9F002F04D52046C5
:102C400000F030FD074606E03A460021204600F03D
:102C500045FD00B1071B069733E129682960002272
:102C600051F8040B29600021CDE9000111A803905F
:102C7000DDE900019142049F08BF90424FF03C0CF7
:102C800001D10C9AC2B100F00F033033DBB23A2B02
:102C9000A8BF2733ACF101020009BB54944640EAB7
:102CA000017009090022914208BF904204D0039AA2
:102CB00007EB0C039A42E6D307EB0C000390CCF130
:102CC0003C010C980691814209DA401A08904FF6AF
:102CD000EF71BDF838000840ADF83800F1E0002889
:102CE00040F1EF809DF8380000F01400102840F00B
:102CF000E8800D98059A801A089A801A401A0128CF
:102D0000C0F2DF800890DCE09DF83A0062281AD01B
:102D1000682806D06A280CD06C281CD0712808D0EE
:102D200019E02868286050F8041B28600B98088078
:102D3000C7E02868286050F8042B28600B98C1175A
:102D4000C2E90001BDE02868286050F8041B286033
:102D50000B980870B5E02868286050F8041B2860BC
:102D60000B980860ADE02868C01D20F007022A60BB
:102D7000D2E9000108322A60CDE90001002902D51C
:102D800005982D210AE0BDF83800810702D5059885
:102D90002B2103E0C00705D50598202108F8001075
:102DA000401C059011A805990844039039466846CF
:102DB00000F0E8F985E09DF83A006C280DD0712804
:102DC00018BF6A2809D12868C01D20F007022A60B0
:102DD000D2E9000108322A6005E02968296051F82B
:102DE000040B29600021CDE900019DF83A00682814
:102DF00003D1DDE9000180B20BE0622803D1DDE9F7
:102E00000001C0B205E0742818BF7A2804D1DDE9BA
:102E100000010021CDE900019DF83800000732D5FE
:102E2000DDE900230020834208BF82422BD047F017
:102E30002000782827D10598302108F80010401C80
:102E4000411C059108F800701DE09DF83A002946E4
:102E500000F0DCF8CDE90001DDE9002300218B4220
:102E600002DA05982D210AE0BDF83800810702D565
:102E700005982B2103E0C00705D50598202108F807
:102E80000010401C059011A805990844039039468C
:102E9000684600F0F2F814E00120059028682860E8
:102EA00050F8041B28608DF844100AE025208DF8A6
:102EB000440001200590380003D088F801700220FA
:102EC00005900D980599401A0899401A0699401ADC
:102ED0000999401A0799401A0A99471A9DF838002B
:102EE000400710D42020012F8DF840000BDB3C461A
:102EF000012310AA6946504600F0A2FB002840F0CA
:102F00008080641EF4D1DDF814B0BBF1000F11AC69
:102F10000CD014F8011B0298D0470028029070D002
:102F20000B98401CBBF1010B0B90F2D130208DF8B7
:102F30004000089C012C09DB012310AA6946504679
:102F400000F07EFB00285CD1641EF5D1DDF818B0DE
:102F5000039CBBF1000F0CD014F8011B0298D04762
:102F6000002802904DD00B98401CBBF1010B0B9038
:102F7000F2D130208DF84000099C012C09DB01239F
:102F800010AA6946504600F05BFB002839D1641E48
:102F9000F5D103980699DDF81CB04418BBF1000F79
:102FA0000BD014F8011B0298D047029048B30B983D
:102FB000401CBBF1010B0B90F3D130208DF8400089
:102FC0000A9C012C08DB012310AA6946504600F038
:102FD00037FBB0B9641EF6D19DF8380040077FF585
:102FE00064AD2020012F8DF84000FFF65EAD012377
:102FF00010AA6946504600F023FB10B97F1EF6D197
:1030000053E54FF0FF3021B0BDE8F08F622826D0A5
:1030100068281DD06A2808D06C2827D0712804D0D1
:10302000742823D07A280CD020E00868C01D20F036
:1030300007000860D0E900230830086019461046F0
:1030400070470A680A6052F8040B0A600021704752
:103050000A680A6052F8040B0A6000B20BE00A68C2
:103060000A6052F8040B0A6040B204E00A680A6081
:1030700052F8040B0A60C11770472DE9F343054667
:1030800008462F696F2808BF082405D041F02001A9
:10309000782914BF0A2410243C26D5E9002364288B
:1030A00018BF69289046994606D100218B4203DA61
:1030B000D8F1000869EB49090020814508BF804527
:1030C0000CD1286B50B9082C38D195F8380000077E
:1030D00034D530203B2687F83B002FE0701E00904F
:1030E0000646404649462246E31700F023FB02F11C
:1030F0003000C0B23A2803DB9DF80410513908189B
:10310000B855494640462246E31700F013FB804677
:1031100089460020814508BF804503D0E868B91979
:103120008842DBD3082C09D195F83800000705D573
:10313000B85D302802D0761E3020B855B919E96044
:10314000C6F13C00296BA861884208DA081A286297
:103150004FF6EF71288F08402887BDE8F3830029D8
:103160000ED595F8381001F01401102908D1696BBB
:103170006A69891A2A6A891A0E1A012EA8BF2E6254
:10318000BDE8F3832DE9F34F8BB0D0E90089006BE4
:10319000002801AF48BF062005D404BF41F020003D
:1031A000672802D101200B99086340F2FF720B9847
:1031B0004168C1F30A50904220D1080302BF0B9826
:1031C000006800280AD10B99032088619DF830001F
:1031D00061381A2858D30FF2AC4109E00B9903204B
:1031E00088619DF8300061381A284AD30FF28C416B
:1031F0000B98C068032200F015FBFFE0012807DAF6
:103200000B9800F04AFB012802DB00230026ECE0CB
:103210000B9ADFF854B1526840F2FE3161F31E524E
:103220000B994A6040F2FE31401A00B247F29751C2
:1032300048434E4990FBF1F64046494600220023A0
:1032400000F04EFB36B238BF89F00049C6F10707DF
:10325000012F92461BDBF80707D552465B464046D6
:103260004946FEF7DFFC804689465046594652469D
:103270005B467F10FEF7D6FC002F82468B46EAD1D4
:1032800026E00FF2F431B3E70FF2F431B0E77F42FA
:103290000024374D12E0F80707D552465B4620461A
:1032A0002946FEF7BFFC04460D4650465946524695
:1032B0005B46FEF7B7FC7F1082468B46002FEAD1B3
:1032C0004046494622462B46FEF77EFD804689460B
:1032D0009DF830000B99DFF89CB0096B40F0200599
:1032E000662D0CBF06F10A0006204718142FA8BF50
:1032F000132730208DF804000DF10504012F3BDB6E
:1033000040464946FEF7D2FF014604F10802042375
:103310004FF00A0CB1FBFCFC0CEB8C04A1EB44015C
:10332000303102F8011C0A21BCFBF1FE0EEB8E04C9
:10333000ACEB440430345B1E714602F8024DE7D119
:10334000083F012F02F10804D8DBFEF75DFC0246BE
:103350000B4640464946FFF7CBF800225B46FEF796
:1033600061FC80468946CBE700002440A08601002E
:103370000000F03F84D797410DF10500201A0DF1B0
:10338000050702E0401E761E7F1C39783029F9D0EF
:10339000662D08BF711C03D0652D0CBF01210021D3
:1033A0000B9A126B8B181BB29842B8BF03461BB224
:1033B00019001AD4814204DA785C3528A8BF392074
:1033C00000DA30207A18521E00E05B1E12F8014924
:1033D000491E8442F9D0392802D1785C401C7854C7
:1033E000002902D57F1E5B1C761C36B29DF830107A
:1033F0000B9800961BB23A4600F003F80DB0BDE8FA
:10340000F08F2DE9F04786B006468A4690461D4665
:1034100000F09BFA012D406A376B90F8009002DAB9
:1034200001250FF264284AF02000BDF938406628D3
:1034300008BF641C13D0672840F08A8014F1040F81
:1034400075DBBC4273DA96F83800641C000702D4BE
:10345000BD42B8BF2F4624B23F1B48BF002724B24D
:10346000F068B169012C23DA4A1C30234354012F40
:1034700003DA96F83800000703D5F06800F80290E8
:10348000521CE742B8BF7C4224B260427062E71926
:10349000AF42B261B8BF3D46F068B3692DB2F56185
:1034A0002A464146184400F0BDF9781BB062B0E0EE
:1034B00022469542084416DA2A46414600F0B2F9FF
:1034C000B1696918601B012FB161706203DA96F867
:1034D0003800000705D5F06800F80190F069401C3D
:1034E000F061B76295E0414600F09CF9B0692018A0
:1034F0002D1B012F03DA96F83810090703D5F16860
:1035000001F80090401CB0612DB2AF42B8BF3D46FB
:10351000F068B3692DB22A4608EB0401184400F0A4
:1035200081F9B0692818B061781B706271E0BD4202
:1035300004DA96F83810090758BF2F467F1E48BF97
:103540000027BAF1670F0CBF4FF0650A4FF0450A2C
:10355000B169F368481CB061012F18F8012B5A5467
:1035600003DA96F83810090717D5F168431CB361E0
:1035700001F80090012F10DB6D1E2DB2AF42B8BFD5
:103580003D46F0682DB22A464146184400F04AF9FB
:10359000B0692818B061781B7062F068B1690144A5
:1035A000200081F800A004D42B20487001F102080B
:1035B00004E02D224A7001F102086442002502AFA6
:1035C00008E00A22684600F0D9F9019807F8010BD3
:1035D0006D1C009C21B20129F3DA022D06DA4AF0B3
:1035E0002000652804BF302008F8010B4DB93020B9
:1035F00008F8010B07E06D1E02A8405D303008F8A6
:10360000010B012DF7DAF068B1690844A8EB00005E
:10361000F06196F8380000F0140010280DD17069A0
:10362000B1690818716A0818F1690818B16A0818B0
:10363000716B8842BCBF081A306206B0BDE8F087E3
:10364000F8B504460D4616461F46002077B116F819
:10365000011BA868A047A86030B1E86A401CE86276
:1036600000207F1EF3D1F2BD4FF0FF30F2BD00000D
:10367000686A6C747A4C00006E616E004E414E00B8
:10368000696E6600494E4600300000000278C9B2FB
:103690008A421AB11CBF10F8012FF9E718BF0020A9
:1036A0007047000000F10103810704D010F8011BEE
:1036B00089B18107FAD10268B2F10131914311F069
:1036C000803F04BF50F8042FF6E710F8011B11B13A
:1036D00010F8011BFBE7C01A70470000C9B283074E
:1036E00006D0521E22D310F8013B9942F7D11FE0B9
:1036F000083A13D302F1040241EA012141EA0141EF
:1037000050F8043B121F21BF4B40A3F1013C2CEAAF
:10371000030C1CF0803FF3D0C9B2001F083210F830
:10372000013B521E28BF91EA030FF8D818BF0120B1
:10373000401E70471B4213D1094236D12AB184463C
:10374000B0FBF2F002FB10C2704700F01FB9FCD3CF
:103750000022002370470B00020000210020704768
:10376000904271EB030CF6D370B5B1FA81F4B3FA61
:1037700083F52C1BA340C4F1200532FA05F6334330
:10378000A2405FF00046E64002E05B085FEA3202DA
:10379000841A71EB030524BF204629467641F4D3F1
:1037A00002000B003000002170BD012ACFD970B596
:1037B000140C20D0B1FA81F4B2FA82F5C4F12004DD
:1037C0006419B4F12006D6D3B2405FF00044F4404F
:1037D000002502E052085FEA3303C61A71EB020EBD
:1037E00024BF3046714664416D41F3D302000B00A3
:1037F0002000290070BD0C46B1FBF2F102FB11451F
:103800002D0445EA1045B5FBF2F402FB145580B2D5
:1038100040EA0545B5FBF2F002FB105240EA0440D5
:1038200070BD000062B38B0708D0521E11F8013B37
:1038300000F8013B00F024808B07F6D1830740F0AD
:10384000208000BF103A07D330B4B1E83810103AE6
:10385000A0E83810F9D230BC530724BFB1E80810F3
:10386000A0E8081044BF51F8043B40F8043BD207DD
:1038700024BF31F8022B20F8022B44BF0B780370D1
:103880007047083A07D3B1E80810083A40F8043BFB
:1038900040F804CBF7D25307E4E730B4436803F0B1
:1038A00000420121C3F313034360002B04BF0368EC
:1038B000002B08D10DE00368DD0F45EA44044460A5
:1038C0005B000360491E4468E302F4D5C4F31303AC
:1038D000436043681A434260084630BC70470000AA
:1038E0004FF4001C1CEB410F94BF1CEB430F09E08D
:1038F00041EA030C50EA4C0C52EA0C0C03D29942F8
:1039000008BF9042704714BF8B428242704700004C
:1039100080B5134800F03BF80FF24C020FF244015F
:103920000160426241600FF24402826381600FF2E3
:103930004402C1600161416181618162C1620163D0
:103940004163C2630164416401BD10B5044800F0E5
:103950001EF80446206808B9FFF7DAFF204610BDBC
:10396000B824FF1F000000002E00000066616C7389
:1039700065000000747275650000000091FBF2F3B1
:1039800003FB1211C0E90031704700007047704717
:103990001A0000001A000000E420000001010102EA
:1039A00004070B0F10121418191B1D1E1E1E1013D6
:1039B0000F0F0D0D0C0C0B0B08060101010101018D
:1039C00001010101040303020101010101010101DF
:1039D00001010101010101020000000000000000DE
:1039E00000000000000000000000000000000000D7
:1039F0000000000000004E6F6E4D61736B61626CE1
:103A00006500000000486172644661756C740000D6
:103A1000000000004D656D4D616E6167656D656EFE
:103A20007400004275734661756C740000000000FC
:103A3000000055736167654661756C740000000095
:103A40000000000000000000000000000000000076
:103A50000000000000000000000000000000000066
:103A60000000000000000000000000000000000056
:103A7000000000000000000000000000005356435A
:103A8000616C6C000000000000000000446562757D
:103A9000674D6F6E69746F720000000000000000D7
:103AA0000000000000000000000050656E645356E6
:103AB0000000000000000000005379735469636B3C
:103AC0000000000000000000444D413000000000F4
:103AD00000000000000000444D41310000000000E3
:103AE000000000000000444D4132000000000000D2
:103AF0000000000000444D413300000000000000C1
:103B000000000000444D41340000000000000000AF
:103B1000000000444D41350000000000000000009E
:103B20000000444D4136000000000000000000008D
:103B300000444D413700000000000000000000007C
:103B4000444D413800000000000000000000004427
:103B50004D41390000000000000000000000444D0D
:103B600041313000000000000000000000444D41E1
:103B7000313100000000000000000000444D4131E0
:103B80003200000000000000000000444D413133CD
:103B900000000000000000000000444D41313400EE
:103BA000000000000000000000444D4131350000DD
:103BB0000000000000000000444D415F4572726F3C
:103BC000720000000000004D434D000000000000A6
:103BD0000000000000004654464C000000000000B9
:103BE0000000000000526561645F436F6C6C697394
:103BF000696F6E004C56445F4C5657000000000041
:103C00000000004C4C5700000000000000000000C5
:103C100000005761746368646F6700000000000073
:103C200000524E47000000000000000000000000AD
:103C3000493243300000000000000000000000494D
:103C4000324331000000000000000000000053502B
:103C500049300000000000000000000000535049FF
:103C60003100000000000000000000005350493205
:103C7000000000000000000000000043414E305FE3
:103C80004F525F4D425F6275660043414E305F4266
:103C900075735F4F666600000043414E305F4572AA
:103CA000726F72000000000043414E305F54785F35
:103CB0005761726E696E6743414E305F52785F574D
:103CC00061726E696E6743414E305F57616B655F2D
:103CD0005570000000526573657276656435310079
:103CE000000000005265736572766564353200002D
:103CF00000000043414E315F4F525F4D425F62759D
:103D0000660043414E315F4275735F4F6666000047
:103D10000043414E315F4572726F72000000000037
:103D200043414E315F54785F5761726E696E6743ED
:103D3000414E315F52785F5761726E696E674341E1
:103D40004E315F57616B655F5570000000526573BF
:103D50006572766564353900000000005265736550
:103D600072766564363000000000005541525430D0
:103D70005F52585F54580000000055415254305F64
:103D800045525200000000000055415254315F522C
:103D9000585F54580000000055415254315F45525D
:103DA0005200000000000055415254325F52585FEB
:103DB00054580000000055415254325F45525200A1
:103DC000000000000055415254335F52585F545870
:103DD0000000000055415254335F4552520000002C
:103DE00000000055415254345F52585F545800004F
:103DF000000055415254345F45525200000000000B
:103E00000055415254355F52585F5458000000002D
:103E100055415254355F45525200000000000041A8
:103E20004443300000000000000000000000414456
:103E300043310000000000000000000000434D502E
:103E4000300000000000000000000000434D503131
:103E50000000000000000000000000434D50320050
:103E60000000000000000000000046544D3000003B
:103E700000000000000000000046544D310000002A
:103E8000000000000000000046544D320000000019
:103E900000000000000000434D540000000000003E
:103EA0000000000000005254430000000000000029
:103EB0000000000000526573657276656438330057
:103EC00000000000504954300000000000000000D5
:103ED00000000050495431000000000000000000C4
:103EE00000005049543200000000000000000000B3
:103EF00000504954330000000000000000000000A2
:103F00005044423000000000000000000000005556
:103F10005342300000000000000000000000555334
:103F200042444344000000000000000000454E45AC
:103F3000545F313538385F54696D6572454E45546C
:103F40005F5472616E736D69740000454E45545F35
:103F500052656365697665000000454E45545F45CE
:103F600072726F720000000000493253300000008E
:103F7000000000000000000053444843000000001F
:103F80000000000000000044414330000000000039
:103F90000000000000004441433100000000000028
:103FA00000000000005453493000000000000000F1
:103FB000000000004D43470000000000000000002A
:103FC0000000004C5054696D657200000000000054
:103FD000000052657365727665643130320000000E
:103FE00000504F525441000000000000000000004B
:103FF000504F5254420000000000000000000050EA
:104000004F52544300000000000000000000504FD9
:1040100052544400000000000000000000504F52C5
:104020005445000000000000000000005265736568
:104030007276656431303800000000526573657235
:104040007665643130390000000052657365727620
:104050006564313130000000005265736572766529
:104060006431313100000000526573657276656419
:10407000313132000000005265736572766564313B
:10408000313300000000526573657276656431312A
:104090003400000000526573657276656431313515
:1040A0000000000052657365727665643131360038
:1040B0000000005265736572766564313137000027
:1040C0000000526573657276656431313800000016
:1040D0000052657365727665643131390000000005
:1040E000008003400090034000800B40000000006F
:1040F00000F00F4040F00F4080F00F40C0F00F4044
:1041000000F10F40F0000A1D3000180032001801C5
:10411000600018186400181A6E00181F7800131831
:104120007D00131A8200131C8C000E1296000E15CF
:10413000A0000E18AA000E1BB4000E1EC8000C1C16
:10414000E1000B1EFA000A1F00010908009004405C
:1041500000A0044000B0044000C0044000D004406F
:1041600000A0064000B0064000C0064000D0064057
:1041700000A00E4000B00E40505152530DC111002E
:1041800009030CD01240173F185019031A78320057
:10419000A00A63E0ACFF650C6600670029142C1EC2
:1041A0002A007E0C7F16802A814E8261836F847B79
:1041B0008586868E879788A489AF8AC58BD78CE839
:1041C0008D204A00491347084B144C174605229985
:1041D0002303A6049B009C7AAB069E119F0200005D
:1041E000020401014C24FF1F9C24FF1F4C24FF1FCD
:1041F0004C24FF1F4C24FF1F9D0CFF1F840CFF1F2E
:1042000000000000000000000000000000000000AE
:10421000000000000000000000000000000000009E
:10422000FF00282801310000DFF800F0A90CFF1F73
:10423000DFF8941340B231F8201040B20128C0F2E8
:10424000698140B2112880F265810022DFF87C3359
:104250001A7089B2312904DA0022DFF870335A70FB
:1042600076E089B2612904DA0122DFF860335A70FE
:104270006EE089B2912904DA0222DFF850335A70D5
:1042800066E089B2C12904DA0322DFF840335A70AC
:104290005EE089B2F12904DA0422DFF830335A7083
:1042A00056E089B2B1F5907F04DC0522DFF81C33BB
:1042B0005A704DE089B2B1F5A87F04DC0622DFF820
:1042C0000C335A7044E089B2B1F5C07F04DC072298
:1042D000DFF8F8325A703BE089B2B1F5D87F04DCE0
:1042E0000822DFF8E8325A7032E089B2B1F5F07F87
:1042F00003DC0922B54B5A702AE089B2B1F5047F7C
:1043000003DC0A22B14B5A7022E089B2B1F5107F6A
:1043100003DC0B22AD4B5A701AE089B2B1F51C7F59
:1043200003DC0C22A94B5A7012E089B2B1F5287F48
:1043300003DC0D22A54B5A700AE089B2B1F5347F37
:1043400003DC0E22A14B5A7002E00F229F4B5A70E1
:1043500089B21A2903DA00229C4B9A7069E089B26B
:10436000332903DA0122994B9A7062E089B24C2911
:1043700003DA0222954B9A705BE089B2652903DA71
:104380000322924B9A7054E089B27E2903DA042208
:104390008E4B9A704DE089B2972903DA05228B4B38
:1043A0009A7046E089B2B02903DA0622874B9A70E8
:1043B0003FE089B2C92903DA0722844B9A7038E0BA
:1043C00089B2E22903DA0822804B9A7031E089B27F
:1043D000FB2903DA09227D4B9A702AE089B2B1F5F4
:1043E0008A7F03DA0A22794B9A7022E089B2B1F50A
:1043F000967F03DC0B22754B9A701AE089B2B1F5F7
:10440000A37F03DA0C22714B9A7012E089B2B1F5E6
:10441000AF7F03DC0D226D4B9A700AE089B2B1F5D3
:10442000BC7F03DA0E22694B9A7002E00F22674BC1
:104430009A7089B21A2903DA0022644BDA7069E0B3
:1044400089B2332903DA0122604BDA7062E089B263
:104450004C2903DA02225D4BDA705BE089B26529F0
:1044600003DA0322594BDA7054E089B27E2903DA69
:104470000422564BDA704DE089B2972903DA0522FF
:10448000524BDA7046E089B2B02903DA06224F4B6C
:10449000DA703FE089B2C92903DA07224B4BDA70A0
:1044A00038E089B2E22903DA0822484BDA7031E0B9
:1044B00089B2FB2903DA0922444BDA702AE089B277
:1044C000B1F58A7F03DA0A22404BDA7022E089B222
:1044D000B1F5967F03DC0B223C4BDA701AE089B20F
:1044E000B1F5A37F03DA0C22384BDA7012E089B2FF
:1044F000B1F5AF7F03DC0D22344BDA700AE089B2EC
:10450000B1F5BC7F03DA0E22304BDA7002E00F22E5
:104510002E4BDA70704710B50400200040B2FFF750
:1045200087FE2B48007810F0FD00294908702848C4
:10453000007850F0100026490870B820254908700E
:1045400025480078C006FBD423480078C0F38100DA
:10455000C0B20228F8D11D48C3781C4882781B4895
:1045600041781A480078FFF75FFE174864B200EB05
:104570008400807810F01F0018490870124864B257
:1045800000EB8400C07810F01F0050F04000144988
:104590000870114800788006FBD50F480078400667
:1045A000FBD50C48007810F03F000A4908700A4813
:1045B0000078C0F38100C0B20328F8D1024864B289
:1045C00030F82400C0B210BD840BFF1FC80BFF1FC2
:1045D00001400640004006400640064004400640B8
:1045E0000540064038B504000D0064B2002C03D02D
:1045F000022C66D049D380E0DFF84C03006850F00D
:104600008070DFF8441308606DB2002D0BD0022DCE
:1046100015D00ED3042D1ED017D3062D27D020D3AE
:10462000072D2AD02FE04FF480614120FEF720F8BB
:104630002AE04FF480614220FEF71AF824E04FF49C
:1046400080614320FEF714F81EE04FF4806144209F
:10465000FEF70EF818E04FF480616420FEF708F8CA
:1046600012E04FF480616520FEF702F80CE04FF491
:1046700080616620FDF7FCFF06E04FF48061672053
:10468000FDF7F6FF00E038E037E0DFF8BC02006835
:1046900050F00070DFF8B01208606DB2002D02D04B
:1046A000012D06D00BE04FF440712020FDF7E0FF14
:1046B00006E04FF440710D20FDF7DAFF00E01CE04A
:1046C0001BE0DFF88802006850F08070DFF87C1291
:1046D00008606DB2002D02D0012D06D00BE04FF422
:1046E00040710A20FDF7C4FF06E04FF440710B2033
:1046F000FDF7BEFF00E000E0FFE731BD2DE9F84F18
:1047000004000D0016001F0064B2002C0ED064B22D
:10471000012C02D064B2022C02D16DB2022D05DB55
:1047200040F28511DFF82802FDF7FEFF290049B2AB
:10473000200040B2FFF756FFDFF8180200684FF480
:104740007A71484380465FEA1840B0FBF6F0814634
:10475000002082461FFA89F9484650FA0AF00128DB
:1047600002DB1AF1010AF5E75FFA8AFABAF1080FDB
:1047700005DB4FF4D071DFF8D801FDF7D5FF4046D7
:1047800030FA0AF0B0FBF6F081461FFA89F9DFF83B
:10479000C80164B240F8249064B2002C03D0022C0B
:1047A00018D00BD321E01FFA89F919F1010000FBA1
:1047B00007F06421B0FBF1F0834616E01FFA89F997
:1047C00019F1010000FB07F042F21071B0FBF1F0AB
:1047D00083460AE01FFA89F919F1010000FB07F08E
:1047E0006421B0FBF1F08346FFE7DFF8700164B2AB
:1047F00050F824006DB200EBC500DFF8601164B220
:1048000051F824106DB201EBC501C96831F0040103
:10481000C160DFF8480164B250F824006DB200EBCB
:10482000C5002821C1605FFA8AFA1AF0070050F02B
:104830000800DFF8281164B251F8241008601FFA4C
:1048400089F9DFF8180164B250F82400C0F8089024
:104850000020DFF8081164B251F82410C864DFF8B2
:10486000FC0064B250F824006DB200EBC5001FFAE2
:104870008BFBC0F810B00020DFF8E01064B251F8F4
:1048800024104860BDE8F18F2DE9F04104000D00CF
:1048900016005FF0000864B2002C0ED064B2012C48
:1048A00002D064B2022C02D16DB2022D05DB4FF4AE
:1048B000F371DFF89C00FDF737FF64B2002C03D0E2
:1048C000022C03D001D30AE009E008E0652E05D3ED
:1048D0004FF4FA71DFF87800FDF726FFFFE7DFF805
:1048E000780064B250F82400804664B2002C03D0F3
:1048F000022C14D009D31BE018F1010000FB06F0D4
:104900006421B0FBF1F0070012E018F1010000FB98
:1049100006F042F21071B0FBF1F0070008E018F168
:10492000010000FB06F06421B0FBF1F00700FFE797
:10493000DFF8280064B250F824006DB200EBC50027
:104940000761BDE8F08100003C80044030800440F5
:10495000705700004024FF1F1824FF1F600BFF1F2B
:1049600001B4BDF80000002805D0BDF80000401ECD
:10497000ADF80000F5E701B0704780B501220121D4
:104980001A20FDF715FD012201211920FDF710FD68
:1049900023211A20FDF790FE23211920FDF78CFE1C
:1049A00001BD80B501207A4908600120794908607D
:1049B0004FF4C870FFF7D4FF0020774908607748AC
:1049C0000068002804D1012073490860002016E027
:1049D00001207149086000206D4908604FF4C870DB
:1049E000FFF7BEFF00206B4908606C480068002894
:1049F00004D0012068490860002000E0012002BDC9
:104A000080B50020634908600020614908604FF4C8
:104A1000C870FFF7A5FF01205E4908604FF4C87019
:104A2000FFF79EFF01205A4908604FF4C870FFF756
:104A300097FF01BD80B50020564908604FF4C8704B
:104A4000FFF78EFF0020524908604FF4C870FFF74F
:104A500087FF01204F4908604FF4C870FFF780FFBF
:104A600000204C4908604FF4C870FFF779FF01BD82
:104A700080B50020474908604FF4C870FFF770FF09
:104A80000120434908604FF4C870FFF769FF012017
:104A9000404908604FF4C870FFF762FF00203D49AD
:104AA00008604FF4C870FFF75BFF01BD80B50020C0
:104AB000384908600020384908604FF4C870FFF793
:104AC0004FFF0120334908604FF4C870FFF748FFDB
:104AD00032480068002807D001202F4908600020D4
:104AE0002C490860002006E001202B4908600020C6
:104AF00028490860012002BD38B5050008242000BF
:104B0000441EC0B2002818D0280603D50120204931
:104B1000086002E000201E4908606D004FF4C87074
:104B2000FFF71EFF01201B4908604FF4C870FFF714
:104B300017FF002017490860E1E731BD38B50824A8
:104B400000250020144908602000441EC0B200283F
:104B500015D06D0000200F4908604FF4C870FFF7B2
:104B6000FFFE01200B4908604FF4C870FFF7F8FE04
:104B70000A4800680028E7D055F00105E4E7012065
:104B800005490860002003490860EDB2280032BDE5
:104B90006400FE436800FE43E402FE436402FE43F9
:104BA00070B504000D0000262900C9B2200080B2B3
:104BB00000F00AF8002805D1761CF6B2142EF3D1C5
:104BC000002000E0012070BD38B504000D00FFF7A3
:104BD000E8FE002801D1002019E04220FFF78CFFF9
:104BE000FFF764FF002803D1FFF70AFF00200EE063
:104BF0002000C0B2FFF780FFFFF758FF2800C0B2C7
:104C0000FFF77AFFFFF752FFFFF7FAFE012032BDF0
:104C1000F8B504000D00160000273200D2B22900BA
:104C200089B2200000F00AF8002805D17F1CFFB2ED
:104C30001E2FF2D1002000E00120F2BD70B504006B
:104C40000D001600FFF7ADFE002801D1002037E06F
:104C50004220FFF751FFFFF729FF002803D1FFF79C
:104C6000CFFE00202CE03000C0B2FFF745FFFFF779
:104C70001DFFFFF7C5FEFFF794FE002801D10020BD
:104C80001EE04320FFF738FFFFF710FF002803D195
:104C9000FFF7B6FE002013E0ADB2002D0DD0FFF7F8
:104CA0004DFF2070ADB2012D02D1FFF7E1FE01E012
:104CB000FFF7C0FE641C6D1EEEE7FFF7A1FE0120AA
:104CC00070BD0000012110F01F0291407C4A40B2EB
:104CD000430942F823107047012110F01F02914050
:104CE000784A40B2430942F82310704710B50400D7
:104CF0007548046000F08AF80028FBD000F002F844
:104D0000002010BDE0B5012002904FF41670019014
:104D10000020009007236C4802686C49002000F0D6
:104D200029F96B480068400840006949086057202D
:104D3000FFF7D2FF6748006850F00100654908603E
:104D40000020FFF7BFFF64490720FDF791FC63498E
:104D50001020FDF78DFC07BD80B5614890F900007B
:104D600004281BD103205E4908705720FFF7B4FFC9
:104D700080205C4908605C480068401C5A49086013
:104D80005348006850F0010051490860802055499F
:104D900008604D4800685549086005E05720FFF756
:104DA0009BFF02204E49087001BD01204C4908704C
:104DB00001204F49087000204B49086045480068B1
:104DC00050F0010043490860704780B50420444911
:104DD00008705FF0FF30434908605720FFF772FF0B
:104DE0003F4890F9000001280FD03D4890F900009D
:104DF0000228F5D104203A4908705FF0FF303949A4
:104E000008605720FFF75EFFEAE701BD10B582B0EA
:104E1000002400208DF80000FFF7AFFD8021122054
:104E2000FFF7BEFE002804D13248FDF7BDFC00208C
:104E300044E03220FDF7E5FC0B2201216846FFF734
:104E4000E7FE002804D12C48FDF7AEFC002035E039
:104E50009DF800102948FDF7A7FC2948017829484A
:104E6000FDF7A2FC9DF80000212826D100200400B7
:104E700020002349097880B289B2884218D222489A
:104E8000A4B200EB440041781F48A4B210F814000B
:104E900080B2FFF785FE002808D11B48A4B210F8A5
:104EA00014101A48FDF780FC002007E0641CDFE7BF
:104EB0001748FDF779FC012000E0002016BD000036
:104EC00000E100E080E100E04424FF1F11F00F400A
:104ED0000C80004024800040020102001201090001
:104EE000A40CFF1FA09004404824FF1F1090004016
:104EF000B424FF1F70590000C4590000BC580000C2
:104F0000A50CFF1F14590000FC0BFF1F885900005F
:104F1000E05800002DE9F84380460C005FEA981045
:104F200010F00700C0B25FEA40194046103810F098
:104F30003F00C0B2C000050015EB09000700E4B255
:104F400017EBC400401E060030003900C0B2C9B2E1
:104F500088420DD3002200213800C0B2FDF728FAA4
:104F60004FF481713800C0B2FDF782FB7F1CEBE784
:104F7000BDE8F1832DE9F84F04000D0016009B46B3
:104F80009DF92870DDF82C80DDF830907FB2002F7D
:104F900002D15FF0010A0DE07FB2012F02D15FF074
:104FA000020A07E07FB2022F02D15FF0040A01E09B
:104FB0005FF0100A7FB2002F05D15A48854202D314
:104FC0005948A8421DD27FB2012F09D155488542C8
:104FD00006D35648A84203D315F00300032810D186
:104FE0007FB2022F09D14F48854206D35048A842CC
:104FF00003D315F00300002803D061214D48FDF7CD
:1050000093FBB8F5004F03D363214A48FDF78CFBAF
:105010004948006850F00200474908604748006866
:1050200050F0020045490860454864B261014550AE
:10503000434864B26101084406610020404964B2FB
:105040006201114488805FFA8AFA3D4864B26101C6
:105050000844A0F814A07FB2380210F4E0607FB2D8
:1050600017F007010843364964B262011144C88051
:1050700040464004400C324964B262011144C88287
:1050800040464004400C2E4964B262011144C8837A
:105090002C48006830F080002A4908605FFA8AFADC
:1050A000274864B261010844C0F808A000202449E0
:1050B00064B262011144C8605FEAC97002D4D8F1D9
:1050C000000000E000201E4964B2620111448861C2
:1050D0004CF20A001A4964B26201114488835846AE
:1050E000C0B24009313050F08000174964B2085511
:1050F00016495846C0B2FDF7BBFA5146C9B228005E
:10510000FFF708FF124800680121A14088431049B9
:105110000860104800680121A14008430D4908605B
:10512000BDE8F18F10F00F4013F10F4012F10F4066
:1051300010F10F402C570000408004403C80044098
:10514000009000400080004000100240000101007B
:105150000C8000402480004080B500F08DF800F005
:1051600023F800F003F800F0B1F8FEE780B5032063
:10517000FFF7D1F932490860314800684FF47A717D
:105180004843304908602F4800682F490968C1F337
:105190000361491CB0FBF1F02C4908605FF4E13178
:1051A0000520FDF745FB01BD2DE9F84328482949B5
:1051B00088420DD000208046B8F5826F08D225487D
:1051C00050F82800224941F8280018F10108F3E7B7
:1051D0001F4800F0F9F82048070020480600204842
:1051E0000400A01B80464046B0F10108002804D00E
:1051F00030783870761C7F1CF5E71A4881461A48CB
:105200000500B5EB090080464046B0F101080028D2
:1052100005D0002089F8000019F10109F4E71348CE
:105220001349144A531A98464346B3F10108002B18
:1052300004D00B780370491C401CF5E7BDE8F183EE
:105240003C24FF1F3824FF1F448004404024FF1FDC
:105250000000FF1F000000001004FF1F9039000035
:1052600028420000F80CFF1FB824FF1FA80CFF1FE6
:10527000045600005456000080B500F008F80C48B1
:1052800000884FF6FE7108400949088001BDEFF320
:10529000118072B64CF22051064A11804DF6281149
:1052A000044A1180C0B2002800D162B670470000E5
:1052B000002005400E200540012110F01F02914002
:1052C000364A40B2430942F82310704780B534494A
:1052D000672000F08AF83349102000F086F8324940
:1052E0006B2000F082F85B20FFF7E6FF00F094F8F7
:1052F0005FF4E1310520FDF79BFA2C48FFF7F6FC3F
:10530000FFF763FD4FF4167228492948FCF7DAFAD3
:105310002748FBF781F827490870FBF7BFFD2649AE
:105320000870254802782821244800F0BFF8244955
:10533000086042F27A1242F24E0121480068FCF7FE
:10534000B7FE1F4908601F48007801281FD10023BD
:105350004FF4FA5200210020FFF7D0F900234FF458
:10536000FA5203210020FFF7C9F907234FF4FA523C
:1053700001210020FFF7C2F907234FF4FA5202215E
:105380000020FFF7BBF942F2E4000D4908600C4829
:10539000026800210120FFF777FAB1E700E100E0A1
:1053A000AD550000CF550000D7550000000FFF1F7E
:1053B0005811FF1FA624FF1FA20CFF1F2824FF1F48
:1053C0001804FF1FB024FF1F10B504004FF4007035
:1053D00094FBF0F100FB1140002803D01E210B4884
:1053E000FDF7A2F90A48046010BD38B504000D00AD
:1053F000074800680749884203D030210348FDF779
:1054000093F9044864B240F8245031BDB457000009
:1054100008ED00E00000FF1F80B521499B20FDF74B
:1054200027F9002201214120FCF7C2FF00220121BF
:105430004220FCF7BDFF002201214320FCF7B8FF0A
:10544000002201214420FCF7B3FF00220121642047
:10545000FCF7AEFF134803684FF4FA520021002016
:10546000FFF74CF900234FF4FA5201210020FFF717
:1054700045F900234FF4FA5202210020FFF73EF9CC
:10548000094803684FF4FA5203210020FFF736F968
:1054900042F2E403642200210120FFF72FF901BD4D
:1054A00003010A001004FF1F1404FF1FF8B50400D5
:1054B0000D001600394800782D281BDB384800689D
:1054C000001FFCF797FB374A374BFCF7ABFBFCF7A9
:1054D000EDFE030042F2107200210020FFF70EF9EA
:1054E0002F480068031F42F2107203210020FFF7CB
:1054F00005F90FE02A48036842F2107200210020EB
:10550000FFF7FCF82648036842F2107203210020DE
:10551000FFF7F4F821480078242820DA1F480078A3
:10552000401F1E4908701E480068001FFCF762FB00
:105530001C4A1D4BFCF776FBFCF7B8FE030042F259
:10554000107203210020FFF7D9F815480068031FE7
:1055500042F2107200210020FFF7D0F80FE010484F
:10556000036842F2107203210020FFF7C7F80C48CD
:10557000036842F2107203210020FFF7BFF8721B8C
:1055800011000A226368CB1A1B277B4302FB0132FE
:105590001000616042F2E402101AF2BDA20CFF1F7B
:1055A0001404FF1FCDCCCCCCCCCCFC3F38B50024B0
:1055B000124805685FF0FF301049086010200400B1
:1055C0002800E040C00701D5FFF7C6FB31BD80B51C
:1055D000FFF7EBFB01BD10B500241B2004000848B9
:1055E0000068E040C00708D50120A04004490860D9
:1055F000012201216420FCF7DBFE10BDA0900440D5
:10560000A0D00440F0B4114E366834000F4E366816
:1056100056F47F060D4F3E600E0616F0706656EA91
:105620000076170517F470073E431F0417F4702720
:105630003E43074F3E6000263500EDB29D4201D249
:105640006D1CFAE7014E3460F0BC704700F0014079
:1056500044800440433A5C55736572735C6A6961C7
:1056600067655C4465736B746F705CD6C7C4DCB3EC
:10567000B5C8EDBCFE5C6B3630D7EED0C25CD0A1B5
:10568000B3B5315C436869705C7372635C4D4B36D3
:10569000305F6770696F2E6300000000433A5C550D
:1056A000736572735C6A696167655C4465736B748A
:1056B0006F705CD6C7C4DCB3B5C8EDBCFE5C6B369E
:1056C00030D7EED0C25CD0A1B3B5315C436869700D
:1056D0005C7372635C4D4B36305F5379735469630E
:1056E0006B2E6300433A5C55736572735C6A696143
:1056F00067655C4465736B746F705CD6C7C4DCB35C
:10570000B5C8EDBCFE5C6B3630D7EED0C25CD0A124
:10571000B3B5315C436869705C7372635C4D4B3642
:10572000305F756172742E6300000000433A5C556F
:10573000736572735C6A696167655C4465736B74F9
:105740006F705CD6C7C4DCB3B5C8EDBCFE5C6B360D
:1057500030D7EED0C25CD0A1B3B5315C436869707C
:105760005C7372635C4D4B36305F646D612E630019
:10577000433A5C55736572735C6A696167655C4442
:1057800065736B746F705CD6C7C4DCB3B5C8EDBC11
:10579000FE5C6B3630D7EED0C25CD0A1B3B5315CC5
:1057A000436869705C7372635C4D4B36305F66743E
:1057B0006D2E6300433A5C55736572735C6A696170
:1057C00067655C4465736B746F705CD6C7C4DCB38B
:1057D000B5C8EDBCFE5C6B3630D7EED0C25CD0A154
:1057E000B3B5315C436869705C7372635C6D6973F7
:1057F000632E630019E050F8041BCB0744BFA9F1E6
:1058000001035918121F0023042A41F8043BF9D25E
:105810005FEA827C0B4604D54FF0000CA1F800C073
:105820009B1CD10744BF0021197050F8042B002A9B
:10583000E1D170470A2A2A2A2A64656661756C7468
:105840005F69737220656E7465726564206F6E2087
:10585000766563746F722025642A2A2A2A2A0A0A26
:10586000257320496E7465727275707400000000B3
:1058700010B5074979441831064C7C44163404E0CD
:105880000A68081D114488470146A142F8D110BD9D
:105890007400000080000000417373657274696FCA
:1058A0006E206661696C656420696E2025732061D5
:1058B00074206C696E652025640A00000A476574CF
:1058C0002049442073756363657373A3AC53454EDD
:1058D000534F5220494420697320307825780000C6
:1058E0000A4F5637373235205265676973746572CF
:1058F00020436F6E66696720537563636573732118
:1059000000000000F1FEFFFFC0170000F80CFF1FB1
:10591000000000000A436F6E666967205265676980
:1059200073746572204E756D6265722069732025EF
:105930006420000000F00BF8002801D0FFF798FF6A
:105940000020C046C046FFF7C1FC00F002F801206D
:10595000704700F001B800000746384600F002F832
:10596000FBE700002021090326311820ABBEF9E730
:105970000ABEAFB8E63A53434342D0B4CAFDBEDDD7
:10598000B4EDCEF3000000000ABEAFB8E63AD0B4E2
:10599000BCC4B4E6C6F730782578CAA7B0DC0000EE
:1059A00038B504460D46284600F006F8A84218BF50
:1059B0000024204632BD00000149FCF7C8BE00BFEC
:1059C000600CFF1F0ABEAFB8E63AB6C1C8A1494491
:1059D000CAA7B0DC00000000C046C046C046C046B2
:1059E000FFF7A8FF0000000000000000000000001A
:1059F00000000000000000000000000000000000A7
:105A0000FFFFFFFFFFFFFFFF00000000000000009E
:105A10000000000000000000000000000000000086
:105A2000000000000000000000000000FFFFFFFF7A
:105A3000FFFF000000000000000000000000000068
:105A40000000000000000000000000000000000056
:105A50000000000000000000000000000000000046
:0C5A60000000000000000000000000003A
:04000005000059D9C5
:00000001FF
